{
  "_format": "hh-sol-artifact-1",
  "contractName": "QuantumStorage",
  "sourceName": "contracts/QuantumStorage.sol",
  "abi": [
    {
      "anonymous": false,
      "inputs": [
        {
          "indexed": true,
          "internalType": "uint256",
          "name": "fileId",
          "type": "uint256"
        },
        {
          "indexed": true,
          "internalType": "address",
          "name": "grantee",
          "type": "address"
        }
      ],
      "name": "AccessGranted",
      "type": "event"
    },
    {
      "anonymous": false,
      "inputs": [
        {
          "indexed": true,
          "internalType": "uint256",
          "name": "fileId",
          "type": "uint256"
        },
        {
          "indexed": true,
          "internalType": "address",
          "name": "revokedUser",
          "type": "address"
        }
      ],
      "name": "AccessRevoked",
      "type": "event"
    },
    {
      "anonymous": false,
      "inputs": [
        {
          "indexed": true,
          "internalType": "uint256",
          "name": "fileId",
          "type": "uint256"
        },
        {
          "indexed": true,
          "internalType": "address",
          "name": "uploader",
          "type": "address"
        },
        {
          "indexed": false,
          "internalType": "string",
          "name": "cid",
          "type": "string"
        },
        {
          "indexed": false,
          "internalType": "uint256",
          "name": "timestamp",
          "type": "uint256"
        }
      ],
      "name": "FileStored",
      "type": "event"
    },
    {
      "anonymous": false,
      "inputs": [
        {
          "indexed": true,
          "internalType": "uint256",
          "name": "fileId",
          "type": "uint256"
        },
        {
          "indexed": true,
          "internalType": "address",
          "name": "oldOwner",
          "type": "address"
        },
        {
          "indexed": true,
          "internalType": "address",
          "name": "newOwner",
          "type": "address"
        }
      ],
      "name": "OwnershipTransferred",
      "type": "event"
    },
    {
      "inputs": [
        {
          "internalType": "uint256",
          "name": "fileId",
          "type": "uint256"
        }
      ],
      "name": "getCID",
      "outputs": [
        {
          "internalType": "string",
          "name": "",
          "type": "string"
        }
      ],
      "stateMutability": "view",
      "type": "function"
    },
    {
      "inputs": [
        {
          "internalType": "uint256",
          "name": "fileId",
          "type": "uint256"
        }
      ],
      "name": "getFileInfo",
      "outputs": [
        {
          "internalType": "address",
          "name": "owner",
          "type": "address"
        },
        {
          "internalType": "address",
          "name": "uploader",
          "type": "address"
        },
        {
          "internalType": "string",
          "name": "cid",
          "type": "string"
        },
        {
          "internalType": "uint256",
          "name": "timestamp",
          "type": "uint256"
        },
        {
          "internalType": "address[]",
          "name": "accessUsers",
          "type": "address[]"
        }
      ],
      "stateMutability": "view",
      "type": "function"
    },
    {
      "inputs": [],
      "name": "getTotalFiles",
      "outputs": [
        {
          "internalType": "uint256",
          "name": "",
          "type": "uint256"
        }
      ],
      "stateMutability": "view",
      "type": "function"
    },
    {
      "inputs": [
        {
          "internalType": "uint256",
          "name": "fileId",
          "type": "uint256"
        },
        {
          "internalType": "address",
          "name": "user",
          "type": "address"
        }
      ],
      "name": "grantAccess",
      "outputs": [],
      "stateMutability": "nonpayable",
      "type": "function"
    },
    {
      "inputs": [
        {
          "internalType": "uint256",
          "name": "fileId",
          "type": "uint256"
        },
        {
          "internalType": "address",
          "name": "user",
          "type": "address"
        }
      ],
      "name": "hasAccess",
      "outputs": [
        {
          "internalType": "bool",
          "name": "",
          "type": "bool"
        }
      ],
      "stateMutability": "view",
      "type": "function"
    },
    {
      "inputs": [
        {
          "internalType": "uint256",
          "name": "fileId",
          "type": "uint256"
        },
        {
          "internalType": "address",
          "name": "user",
          "type": "address"
        }
      ],
      "name": "revokeAccess",
      "outputs": [],
      "stateMutability": "nonpayable",
      "type": "function"
    },
    {
      "inputs": [
        {
          "internalType": "uint256",
          "name": "fileId",
          "type": "uint256"
        },
        {
          "internalType": "address",
          "name": "newOwner",
          "type": "address"
        }
      ],
      "name": "transferOwnership",
      "outputs": [],
      "stateMutability": "nonpayable",
      "type": "function"
    },
    {
      "inputs": [
        {
          "internalType": "string",
          "name": "cid",
          "type": "string"
        }
      ],
      "name": "uploadFile",
      "outputs": [],
      "stateMutability": "nonpayable",
      "type": "function"
    }
  ],
  "bytecode": "0x6080604052348015600f57600080fd5b50611ca78061001f6000396000f3fe608060405234801561001057600080fd5b50600436106100885760003560e01c8063ced141981161005b578063ced1419814610113578063d7d5603514610143578063d9a5ec1b14610177578063e37ffc301461019357610088565b806329507f731461008d57806365dd152c146100a9578063766e0d33146100c5578063913a2ffe146100e3575b600080fd5b6100a760048036038101906100a291906111f4565b6101af565b005b6100c360048036038101906100be91906111f4565b610490565b005b6100cd610730565b6040516100da9190611243565b60405180910390f35b6100fd60048036038101906100f8919061125e565b61073a565b60405161010a919061131b565b60405180910390f35b61012d600480360381019061012891906111f4565b610880565b60405161013a9190611358565b60405180910390f35b61015d6004803603810190610158919061125e565b6108ea565b60405161016e959493929190611440565b60405180910390f35b610191600480360381019061018c91906111f4565b610cc1565b005b6101ad60048036038101906101a89190611506565b610f24565b005b3373ffffffffffffffffffffffffffffffffffffffff1660008084815260200190815260200160002060010160009054906101000a900473ffffffffffffffffffffffffffffffffffffffff1673ffffffffffffffffffffffffffffffffffffffff1614610252576040517f08c379a00000000000000000000000000000000000000000000000000000000081526004016102499061159f565b60405180910390fd5b600073ffffffffffffffffffffffffffffffffffffffff168173ffffffffffffffffffffffffffffffffffffffff16036102c1576040517f08c379a00000000000000000000000000000000000000000000000000000000081526004016102b89061160b565b60405180910390fd5b600080600084815260200190815260200160002060010160009054906101000a900473ffffffffffffffffffffffffffffffffffffffff1690508160008085815260200190815260200160002060010160006101000a81548173ffffffffffffffffffffffffffffffffffffffff021916908373ffffffffffffffffffffffffffffffffffffffff160217905550600160008085815260200190815260200160002060040160008473ffffffffffffffffffffffffffffffffffffffff1673ffffffffffffffffffffffffffffffffffffffff16815260200190815260200160002060006101000a81548160ff021916908315150217905550600080848152602001908152602001600020600501829080600181540180825580915050600190039060005260206000200160009091909190916101000a81548173ffffffffffffffffffffffffffffffffffffffff021916908373ffffffffffffffffffffffffffffffffffffffff1602179055508173ffffffffffffffffffffffffffffffffffffffff168173ffffffffffffffffffffffffffffffffffffffff16847f16b85f49bf01212961345d3016c9a531894accf62eb7680f2045d79185cc0ec060405160405180910390a4505050565b3373ffffffffffffffffffffffffffffffffffffffff1660008084815260200190815260200160002060010160009054906101000a900473ffffffffffffffffffffffffffffffffffffffff1673ffffffffffffffffffffffffffffffffffffffff1614610533576040517f08c379a000000000000000000000000000000000000000000000000000000000815260040161052a9061159f565b60405180910390fd5b600073ffffffffffffffffffffffffffffffffffffffff168173ffffffffffffffffffffffffffffffffffffffff16036105a2576040517f08c379a000000000000000000000000000000000000000000000000000000000815260040161059990611677565b60405180910390fd5b60008083815260200190815260200160002060040160008273ffffffffffffffffffffffffffffffffffffffff1673ffffffffffffffffffffffffffffffffffffffff16815260200190815260200160002060009054906101000a900460ff1661072c57600160008084815260200190815260200160002060040160008373ffffffffffffffffffffffffffffffffffffffff1673ffffffffffffffffffffffffffffffffffffffff16815260200190815260200160002060006101000a81548160ff021916908315150217905550600080838152602001908152602001600020600501819080600181540180825580915050600190039060005260206000200160009091909190916101000a81548173ffffffffffffffffffffffffffffffffffffffff021916908373ffffffffffffffffffffffffffffffffffffffff1602179055508073ffffffffffffffffffffffffffffffffffffffff16827f3c3a9147a1fc73dd51a32f4d10c43d457e8cb826eb6f35cac6349eb965ba82b460405160405180910390a35b5050565b6000600154905090565b606060008083815260200190815260200160002060040160003373ffffffffffffffffffffffffffffffffffffffff1673ffffffffffffffffffffffffffffffffffffffff16815260200190815260200160002060009054906101000a900460ff166107db576040517f08c379a00000000000000000000000000000000000000000000000000000000081526004016107d2906116e3565b60405180910390fd5b60008083815260200190815260200160002060000180546107fb90611732565b80601f016020809104026020016040519081016040528092919081815260200182805461082790611732565b80156108745780601f1061084957610100808354040283529160200191610874565b820191906000526020600020905b81548152906001019060200180831161085757829003601f168201915b50505050509050919050565b600080600084815260200190815260200160002060040160008373ffffffffffffffffffffffffffffffffffffffff1673ffffffffffffffffffffffffffffffffffffffff16815260200190815260200160002060009054906101000a900460ff16905092915050565b60008060606000606060008087815260200190815260200160002060040160003373ffffffffffffffffffffffffffffffffffffffff1673ffffffffffffffffffffffffffffffffffffffff16815260200190815260200160002060009054906101000a900460ff16610992576040517f08c379a0000000000000000000000000000000000000000000000000000000008152600401610989906116e3565b60405180910390fd5b600080600088815260200190815260200160002090508060010160009054906101000a900473ffffffffffffffffffffffffffffffffffffffff1695508060020160009054906101000a900473ffffffffffffffffffffffffffffffffffffffff169450806000018054610a0590611732565b80601f0160208091040260200160405190810160405280929190818152602001828054610a3190611732565b8015610a7e5780601f10610a5357610100808354040283529160200191610a7e565b820191906000526020600020905b815481529060010190602001808311610a6157829003601f168201915b5050505050935080600301549250600080600090505b8260050180549050811015610b5357826004016000846005018381548110610abf57610abe611763565b5b9060005260206000200160009054906101000a900473ffffffffffffffffffffffffffffffffffffffff1673ffffffffffffffffffffffffffffffffffffffff1673ffffffffffffffffffffffffffffffffffffffff16815260200190815260200160002060009054906101000a900460ff1615610b46578180610b42906117c1565b9250505b8080600101915050610a94565b508067ffffffffffffffff811115610b6e57610b6d611809565b5b604051908082528060200260200182016040528015610b9c5781602001602082028036833780820191505090505b5092506000805b8360050180549050811015610cb4576000846005018281548110610bca57610bc9611763565b5b9060005260206000200160009054906101000a900473ffffffffffffffffffffffffffffffffffffffff1690508460040160008273ffffffffffffffffffffffffffffffffffffffff1673ffffffffffffffffffffffffffffffffffffffff16815260200190815260200160002060009054906101000a900460ff1615610ca65780868480610c58906117c1565b955081518110610c6b57610c6a611763565b5b602002602001019073ffffffffffffffffffffffffffffffffffffffff16908173ffffffffffffffffffffffffffffffffffffffff16815250505b508080600101915050610ba3565b5050505091939590929450565b3373ffffffffffffffffffffffffffffffffffffffff1660008084815260200190815260200160002060010160009054906101000a900473ffffffffffffffffffffffffffffffffffffffff1673ffffffffffffffffffffffffffffffffffffffff1614610d64576040517f08c379a0000000000000000000000000000000000000000000000000000000008152600401610d5b9061159f565b60405180910390fd5b3373ffffffffffffffffffffffffffffffffffffffff168173ffffffffffffffffffffffffffffffffffffffff1603610dd2576040517f08c379a0000000000000000000000000000000000000000000000000000000008152600401610dc990611884565b60405180910390fd5b60008083815260200190815260200160002060040160008273ffffffffffffffffffffffffffffffffffffffff1673ffffffffffffffffffffffffffffffffffffffff16815260200190815260200160002060009054906101000a900460ff16610e71576040517f08c379a0000000000000000000000000000000000000000000000000000000008152600401610e68906118f0565b60405180910390fd5b600080600084815260200190815260200160002060040160008373ffffffffffffffffffffffffffffffffffffffff1673ffffffffffffffffffffffffffffffffffffffff16815260200190815260200160002060006101000a81548160ff0219169083151502179055508073ffffffffffffffffffffffffffffffffffffffff16827f125883b94692baebecad9f111ed97ffa626523bbbadc6b0ef85ee1b56b9e52d560405160405180910390a35050565b60008282905011610f6a576040517f08c379a0000000000000000000000000000000000000000000000000000000008152600401610f619061195c565b60405180910390fd5b60016000815480929190610f7d906117c1565b91905055506000806000600154815260200190815260200160002090508282826000019182610fad929190611b33565b50338160010160006101000a81548173ffffffffffffffffffffffffffffffffffffffff021916908373ffffffffffffffffffffffffffffffffffffffff160217905550338160020160006101000a81548173ffffffffffffffffffffffffffffffffffffffff021916908373ffffffffffffffffffffffffffffffffffffffff16021790555042816003018190555060018160040160003373ffffffffffffffffffffffffffffffffffffffff1673ffffffffffffffffffffffffffffffffffffffff16815260200190815260200160002060006101000a81548160ff02191690831515021790555080600501339080600181540180825580915050600190039060005260206000200160009091909190916101000a81548173ffffffffffffffffffffffffffffffffffffffff021916908373ffffffffffffffffffffffffffffffffffffffff1602179055503373ffffffffffffffffffffffffffffffffffffffff166001547f9394bb113a2aae0d79c8c3d65d69839650a4662ec68b4c095d21c950686fbb7f85854260405161114993929190611c3f565b60405180910390a3505050565b600080fd5b600080fd5b6000819050919050565b61117381611160565b811461117e57600080fd5b50565b6000813590506111908161116a565b92915050565b600073ffffffffffffffffffffffffffffffffffffffff82169050919050565b60006111c182611196565b9050919050565b6111d1816111b6565b81146111dc57600080fd5b50565b6000813590506111ee816111c8565b92915050565b6000806040838503121561120b5761120a611156565b5b600061121985828601611181565b925050602061122a858286016111df565b9150509250929050565b61123d81611160565b82525050565b60006020820190506112586000830184611234565b92915050565b60006020828403121561127457611273611156565b5b600061128284828501611181565b91505092915050565b600081519050919050565b600082825260208201905092915050565b60005b838110156112c55780820151818401526020810190506112aa565b60008484015250505050565b6000601f19601f8301169050919050565b60006112ed8261128b565b6112f78185611296565b93506113078185602086016112a7565b611310816112d1565b840191505092915050565b6000602082019050818103600083015261133581846112e2565b905092915050565b60008115159050919050565b6113528161133d565b82525050565b600060208201905061136d6000830184611349565b92915050565b61137c816111b6565b82525050565b600081519050919050565b600082825260208201905092915050565b6000819050602082019050919050565b6113b7816111b6565b82525050565b60006113c983836113ae565b60208301905092915050565b6000602082019050919050565b60006113ed82611382565b6113f7818561138d565b93506114028361139e565b8060005b8381101561143357815161141a88826113bd565b9750611425836113d5565b925050600181019050611406565b5085935050505092915050565b600060a0820190506114556000830188611373565b6114626020830187611373565b818103604083015261147481866112e2565b90506114836060830185611234565b818103608083015261149581846113e2565b90509695505050505050565b600080fd5b600080fd5b600080fd5b60008083601f8401126114c6576114c56114a1565b5b8235905067ffffffffffffffff8111156114e3576114e26114a6565b5b6020830191508360018202830111156114ff576114fe6114ab565b5b9250929050565b6000806020838503121561151d5761151c611156565b5b600083013567ffffffffffffffff81111561153b5761153a61115b565b5b611547858286016114b0565b92509250509250929050565b7f4e6f7420746865206f776e657200000000000000000000000000000000000000600082015250565b6000611589600d83611296565b915061159482611553565b602082019050919050565b600060208201905081810360008301526115b88161157c565b9050919050565b7f496e76616c6964206e6577206f776e6572000000000000000000000000000000600082015250565b60006115f5601183611296565b9150611600826115bf565b602082019050919050565b60006020820190508181036000830152611624816115e8565b9050919050565b7f496e76616c696420616464726573730000000000000000000000000000000000600082015250565b6000611661600f83611296565b915061166c8261162b565b602082019050919050565b6000602082019050818103600083015261169081611654565b9050919050565b7f4163636573732064656e69656400000000000000000000000000000000000000600082015250565b60006116cd600d83611296565b91506116d882611697565b602082019050919050565b600060208201905081810360008301526116fc816116c0565b9050919050565b7f4e487b7100000000000000000000000000000000000000000000000000000000600052602260045260246000fd5b6000600282049050600182168061174a57607f821691505b60208210810361175d5761175c611703565b5b50919050565b7f4e487b7100000000000000000000000000000000000000000000000000000000600052603260045260246000fd5b7f4e487b7100000000000000000000000000000000000000000000000000000000600052601160045260246000fd5b60006117cc82611160565b91507fffffffffffffffffffffffffffffffffffffffffffffffffffffffffffffffff82036117fe576117fd611792565b5b600182019050919050565b7f4e487b7100000000000000000000000000000000000000000000000000000000600052604160045260246000fd5b7f4f776e65722063616e6e6f74207265766f6b652073656c660000000000000000600082015250565b600061186e601883611296565b915061187982611838565b602082019050919050565b6000602082019050818103600083015261189d81611861565b9050919050565b7f5573657220646f65736e27742068617665206163636573730000000000000000600082015250565b60006118da601883611296565b91506118e5826118a4565b602082019050919050565b60006020820190508181036000830152611909816118cd565b9050919050565b7f4349442063616e6e6f7420626520656d70747900000000000000000000000000600082015250565b6000611946601383611296565b915061195182611910565b602082019050919050565b6000602082019050818103600083015261197581611939565b9050919050565b600082905092915050565b60008190508160005260206000209050919050565b60006020601f8301049050919050565b600082821b905092915050565b6000600883026119e97fffffffffffffffffffffffffffffffffffffffffffffffffffffffffffffffff826119ac565b6119f386836119ac565b95508019841693508086168417925050509392505050565b6000819050919050565b6000611a30611a2b611a2684611160565b611a0b565b611160565b9050919050565b6000819050919050565b611a4a83611a15565b611a5e611a5682611a37565b8484546119b9565b825550505050565b600090565b611a73611a66565b611a7e818484611a41565b505050565b5b81811015611aa257611a97600082611a6b565b600181019050611a84565b5050565b601f821115611ae757611ab881611987565b611ac18461199c565b81016020851015611ad0578190505b611ae4611adc8561199c565b830182611a83565b50505b505050565b600082821c905092915050565b6000611b0a60001984600802611aec565b1980831691505092915050565b6000611b238383611af9565b9150826002028217905092915050565b611b3d838361197c565b67ffffffffffffffff811115611b5657611b55611809565b5b611b608254611732565b611b6b828285611aa6565b6000601f831160018114611b9a5760008415611b88578287013590505b611b928582611b17565b865550611bfa565b601f198416611ba886611987565b60005b82811015611bd057848901358255600182019150602085019450602081019050611bab565b86831015611bed5784890135611be9601f891682611af9565b8355505b6001600288020188555050505b50505050505050565b82818337600083830152505050565b6000611c1e8385611296565b9350611c2b838584611c03565b611c34836112d1565b840190509392505050565b60006040820190508181036000830152611c5a818587611c12565b9050611c696020830184611234565b94935050505056fea26469706673582212202c44f4324a8bf4932e3f17296e8f82ef35a1e60cb9fb91ac26a3dc68cc013f0364736f6c634300081c0033",
  "linkReferences": {},
  "deployedLinkReferences": {}
}