{
  "_format": "hh-sol-artifact-1",
  "contractName": "QuantumStorage",
  "sourceName": "contracts/QuantumStorage.sol",
  "abi": [
    {
      "anonymous": false,
      "inputs": [
        {
          "indexed": true,
          "internalType": "uint256",
          "name": "fileId",
          "type": "uint256"
        },
        {
          "indexed": true,
          "internalType": "address",
          "name": "grantee",
          "type": "address"
        }
      ],
      "name": "AccessGranted",
      "type": "event"
    },
    {
      "anonymous": false,
      "inputs": [
        {
          "indexed": true,
          "internalType": "uint256",
          "name": "fileId",
          "type": "uint256"
        },
        {
          "indexed": true,
          "internalType": "address",
          "name": "revokedUser",
          "type": "address"
        }
      ],
      "name": "AccessRevoked",
      "type": "event"
    },
    {
      "anonymous": false,
      "inputs": [
        {
          "indexed": true,
          "internalType": "uint256",
          "name": "fileId",
          "type": "uint256"
        }
      ],
      "name": "FileDeleted",
      "type": "event"
    },
    {
      "anonymous": false,
      "inputs": [
        {
          "indexed": true,
          "internalType": "uint256",
          "name": "fileId",
          "type": "uint256"
        },
        {
          "indexed": true,
          "internalType": "address",
          "name": "uploader",
          "type": "address"
        },
        {
          "indexed": false,
          "internalType": "string",
          "name": "cid",
          "type": "string"
        },
        {
          "indexed": false,
          "internalType": "uint256",
          "name": "timestamp",
          "type": "uint256"
        }
      ],
      "name": "FileStored",
      "type": "event"
    },
    {
      "anonymous": false,
      "inputs": [
        {
          "indexed": true,
          "internalType": "uint256",
          "name": "fileId",
          "type": "uint256"
        },
        {
          "indexed": false,
          "internalType": "string",
          "name": "newCID",
          "type": "string"
        }
      ],
      "name": "FileUpdated",
      "type": "event"
    },
    {
      "anonymous": false,
      "inputs": [
        {
          "indexed": true,
          "internalType": "uint256",
          "name": "fileId",
          "type": "uint256"
        },
        {
          "indexed": true,
          "internalType": "address",
          "name": "oldOwner",
          "type": "address"
        },
        {
          "indexed": true,
          "internalType": "address",
          "name": "newOwner",
          "type": "address"
        }
      ],
      "name": "OwnershipTransferred",
      "type": "event"
    },
    {
      "inputs": [
        {
          "internalType": "uint256",
          "name": "fileId",
          "type": "uint256"
        }
      ],
      "name": "deleteFile",
      "outputs": [],
      "stateMutability": "nonpayable",
      "type": "function"
    },
    {
      "inputs": [
        {
          "internalType": "uint256",
          "name": "fileId",
          "type": "uint256"
        }
      ],
      "name": "getAccessHistory",
      "outputs": [
        {
          "internalType": "address[]",
          "name": "",
          "type": "address[]"
        }
      ],
      "stateMutability": "view",
      "type": "function"
    },
    {
      "inputs": [],
      "name": "getAccessibleFiles",
      "outputs": [
        {
          "internalType": "uint256[]",
          "name": "fileIds",
          "type": "uint256[]"
        },
        {
          "internalType": "string[]",
          "name": "cids",
          "type": "string[]"
        },
        {
          "internalType": "address[]",
          "name": "owners",
          "type": "address[]"
        },
        {
          "internalType": "address[]",
          "name": "uploaders",
          "type": "address[]"
        },
        {
          "internalType": "uint256[]",
          "name": "timestamps",
          "type": "uint256[]"
        }
      ],
      "stateMutability": "view",
      "type": "function"
    },
    {
      "inputs": [
        {
          "internalType": "uint256",
          "name": "fileId",
          "type": "uint256"
        }
      ],
      "name": "getCID",
      "outputs": [
        {
          "internalType": "string",
          "name": "",
          "type": "string"
        }
      ],
      "stateMutability": "view",
      "type": "function"
    },
    {
      "inputs": [
        {
          "internalType": "uint256",
          "name": "fileId",
          "type": "uint256"
        }
      ],
      "name": "getFileInfo",
      "outputs": [
        {
          "internalType": "address",
          "name": "owner",
          "type": "address"
        },
        {
          "internalType": "address",
          "name": "uploader",
          "type": "address"
        },
        {
          "internalType": "string",
          "name": "cid",
          "type": "string"
        },
        {
          "internalType": "uint256",
          "name": "timestamp",
          "type": "uint256"
        },
        {
          "internalType": "address[]",
          "name": "accessUsers",
          "type": "address[]"
        }
      ],
      "stateMutability": "view",
      "type": "function"
    },
    {
      "inputs": [],
      "name": "getTotalFiles",
      "outputs": [
        {
          "internalType": "uint256",
          "name": "",
          "type": "uint256"
        }
      ],
      "stateMutability": "view",
      "type": "function"
    },
    {
      "inputs": [
        {
          "internalType": "uint256",
          "name": "fileId",
          "type": "uint256"
        },
        {
          "internalType": "address",
          "name": "user",
          "type": "address"
        }
      ],
      "name": "grantAccess",
      "outputs": [],
      "stateMutability": "nonpayable",
      "type": "function"
    },
    {
      "inputs": [
        {
          "internalType": "uint256",
          "name": "fileId",
          "type": "uint256"
        },
        {
          "internalType": "address",
          "name": "user",
          "type": "address"
        }
      ],
      "name": "hasAccess",
      "outputs": [
        {
          "internalType": "bool",
          "name": "",
          "type": "bool"
        }
      ],
      "stateMutability": "view",
      "type": "function"
    },
    {
      "inputs": [
        {
          "internalType": "uint256",
          "name": "fileId",
          "type": "uint256"
        },
        {
          "internalType": "address",
          "name": "user",
          "type": "address"
        }
      ],
      "name": "revokeAccess",
      "outputs": [],
      "stateMutability": "nonpayable",
      "type": "function"
    },
    {
      "inputs": [
        {
          "internalType": "uint256",
          "name": "fileId",
          "type": "uint256"
        },
        {
          "internalType": "address",
          "name": "newOwner",
          "type": "address"
        }
      ],
      "name": "transferOwnership",
      "outputs": [],
      "stateMutability": "nonpayable",
      "type": "function"
    },
    {
      "inputs": [
        {
          "internalType": "uint256",
          "name": "fileId",
          "type": "uint256"
        },
        {
          "internalType": "string",
          "name": "newCID",
          "type": "string"
        }
      ],
      "name": "updateFileCID",
      "outputs": [],
      "stateMutability": "nonpayable",
      "type": "function"
    },
    {
      "inputs": [
        {
          "internalType": "string",
          "name": "cid",
          "type": "string"
        }
      ],
      "name": "uploadFile",
      "outputs": [],
      "stateMutability": "nonpayable",
      "type": "function"
    }
  ],
  "bytecode": "0x6080604052348015600f57600080fd5b5061298e8061001f6000396000f3fe608060405234801561001057600080fd5b50600436106100b45760003560e01c8063c5b4200611610071578063c5b420061461017d578063ced1419814610199578063d7d56035146101c9578063d9a5ec1b146101fd578063e37ffc3014610219578063f2cec6ee14610235576100b4565b80630b10dcd0146100b957806329507f73146100d5578063635fd580146100f157806365dd152c14610113578063766e0d331461012f578063913a2ffe1461014d575b600080fd5b6100d360048036038101906100ce9190611bfc565b610265565b005b6100ef60048036038101906100ea9190611cba565b6103b4565b005b6100f9610697565b60405161010a959493929190611fc8565b60405180910390f35b61012d60048036038101906101289190611cba565b610b6d565b005b610137610e0f565b604051610144919061204d565b60405180910390f35b61016760048036038101906101629190612068565b610e19565b60405161017491906120df565b60405180910390f35b61019760048036038101906101929190612068565b610f5f565b005b6101b360048036038101906101ae9190611cba565b6110bf565b6040516101c0919061211c565b60405180910390f35b6101e360048036038101906101de9190612068565b611129565b6040516101f4959493929190612146565b60405180910390f35b61021760048036038101906102129190611cba565b611500565b005b610233600480360381019061022e91906121a7565b611765565b005b61024f600480360381019061024a9190612068565b611997565b60405161025c91906121f4565b60405180910390f35b823373ffffffffffffffffffffffffffffffffffffffff1660008083815260200190815260200160002060010160009054906101000a900473ffffffffffffffffffffffffffffffffffffffff1673ffffffffffffffffffffffffffffffffffffffff1614610309576040517f08c379a000000000000000000000000000000000000000000000000000000000815260040161030090612262565b60405180910390fd5b6000838390501161034f576040517f08c379a0000000000000000000000000000000000000000000000000000000008152600401610346906122ce565b60405180910390fd5b82826000808781526020019081526020016000206000019182610373929190612534565b50837f6d7ea6878c3777785e2c3ccd60139ee085ea9cb5f39bee41048af1b3ae9f5f1a84846040516103a6929190612640565b60405180910390a250505050565b813373ffffffffffffffffffffffffffffffffffffffff1660008083815260200190815260200160002060010160009054906101000a900473ffffffffffffffffffffffffffffffffffffffff1673ffffffffffffffffffffffffffffffffffffffff1614610458576040517f08c379a000000000000000000000000000000000000000000000000000000000815260040161044f90612262565b60405180910390fd5b600073ffffffffffffffffffffffffffffffffffffffff168273ffffffffffffffffffffffffffffffffffffffff16036104c7576040517f08c379a00000000000000000000000000000000000000000000000000000000081526004016104be906126b0565b60405180910390fd5b600080600085815260200190815260200160002060010160009054906101000a900473ffffffffffffffffffffffffffffffffffffffff1690508260008086815260200190815260200160002060010160006101000a81548173ffffffffffffffffffffffffffffffffffffffff021916908373ffffffffffffffffffffffffffffffffffffffff160217905550600160008086815260200190815260200160002060040160008573ffffffffffffffffffffffffffffffffffffffff1673ffffffffffffffffffffffffffffffffffffffff16815260200190815260200160002060006101000a81548160ff021916908315150217905550600080858152602001908152602001600020600501839080600181540180825580915050600190039060005260206000200160009091909190916101000a81548173ffffffffffffffffffffffffffffffffffffffff021916908373ffffffffffffffffffffffffffffffffffffffff1602179055508273ffffffffffffffffffffffffffffffffffffffff168173ffffffffffffffffffffffffffffffffffffffff16857f16b85f49bf01212961345d3016c9a531894accf62eb7680f2045d79185cc0ec060405160405180910390a450505050565b6060806060806060600080600190505b60015481116107375760008082815260200190815260200160002060040160003373ffffffffffffffffffffffffffffffffffffffff1673ffffffffffffffffffffffffffffffffffffffff16815260200190815260200160002060009054906101000a900460ff1615610724578180610720906126ff565b9250505b808061072f906126ff565b9150506106a7565b508067ffffffffffffffff811115610752576107516122f9565b5b6040519080825280602002602001820160405280156107805781602001602082028036833780820191505090505b5095508067ffffffffffffffff81111561079d5761079c6122f9565b5b6040519080825280602002602001820160405280156107d057816020015b60608152602001906001900390816107bb5790505b5094508067ffffffffffffffff8111156107ed576107ec6122f9565b5b60405190808252806020026020018201604052801561081b5781602001602082028036833780820191505090505b5093508067ffffffffffffffff811115610838576108376122f9565b5b6040519080825280602002602001820160405280156108665781602001602082028036833780820191505090505b5092508067ffffffffffffffff811115610883576108826122f9565b5b6040519080825280602002602001820160405280156108b15781602001602082028036833780820191505090505b509150600080600190505b6001548111610b635760008082815260200190815260200160002060040160003373ffffffffffffffffffffffffffffffffffffffff1673ffffffffffffffffffffffffffffffffffffffff16815260200190815260200160002060009054906101000a900460ff1615610b50578088838151811061093e5761093d612747565b5b602002602001018181525050600080828152602001908152602001600020600001805461096a90612357565b80601f016020809104026020016040519081016040528092919081815260200182805461099690612357565b80156109e35780601f106109b8576101008083540402835291602001916109e3565b820191906000526020600020905b8154815290600101906020018083116109c657829003601f168201915b50505050508783815181106109fb576109fa612747565b5b602002602001018190525060008082815260200190815260200160002060010160009054906101000a900473ffffffffffffffffffffffffffffffffffffffff16868381518110610a4f57610a4e612747565b5b602002602001019073ffffffffffffffffffffffffffffffffffffffff16908173ffffffffffffffffffffffffffffffffffffffff168152505060008082815260200190815260200160002060020160009054906101000a900473ffffffffffffffffffffffffffffffffffffffff16858381518110610ad257610ad1612747565b5b602002602001019073ffffffffffffffffffffffffffffffffffffffff16908173ffffffffffffffffffffffffffffffffffffffff168152505060008082815260200190815260200160002060030154848381518110610b3557610b34612747565b5b6020026020010181815250508180610b4c906126ff565b9250505b8080610b5b906126ff565b9150506108bc565b5050509091929394565b813373ffffffffffffffffffffffffffffffffffffffff1660008083815260200190815260200160002060010160009054906101000a900473ffffffffffffffffffffffffffffffffffffffff1673ffffffffffffffffffffffffffffffffffffffff1614610c11576040517f08c379a0000000000000000000000000000000000000000000000000000000008152600401610c0890612262565b60405180910390fd5b600073ffffffffffffffffffffffffffffffffffffffff168273ffffffffffffffffffffffffffffffffffffffff1603610c80576040517f08c379a0000000000000000000000000000000000000000000000000000000008152600401610c77906127c2565b60405180910390fd5b60008084815260200190815260200160002060040160008373ffffffffffffffffffffffffffffffffffffffff1673ffffffffffffffffffffffffffffffffffffffff16815260200190815260200160002060009054906101000a900460ff16610e0a57600160008085815260200190815260200160002060040160008473ffffffffffffffffffffffffffffffffffffffff1673ffffffffffffffffffffffffffffffffffffffff16815260200190815260200160002060006101000a81548160ff021916908315150217905550600080848152602001908152602001600020600501829080600181540180825580915050600190039060005260206000200160009091909190916101000a81548173ffffffffffffffffffffffffffffffffffffffff021916908373ffffffffffffffffffffffffffffffffffffffff1602179055508173ffffffffffffffffffffffffffffffffffffffff16837f3c3a9147a1fc73dd51a32f4d10c43d457e8cb826eb6f35cac6349eb965ba82b460405160405180910390a35b505050565b6000600154905090565b606060008083815260200190815260200160002060040160003373ffffffffffffffffffffffffffffffffffffffff1673ffffffffffffffffffffffffffffffffffffffff16815260200190815260200160002060009054906101000a900460ff16610eba576040517f08c379a0000000000000000000000000000000000000000000000000000000008152600401610eb19061282e565b60405180910390fd5b6000808381526020019081526020016000206000018054610eda90612357565b80601f0160208091040260200160405190810160405280929190818152602001828054610f0690612357565b8015610f535780601f10610f2857610100808354040283529160200191610f53565b820191906000526020600020905b815481529060010190602001808311610f3657829003601f168201915b50505050509050919050565b803373ffffffffffffffffffffffffffffffffffffffff1660008083815260200190815260200160002060010160009054906101000a900473ffffffffffffffffffffffffffffffffffffffff1673ffffffffffffffffffffffffffffffffffffffff1614611003576040517f08c379a0000000000000000000000000000000000000000000000000000000008152600401610ffa90612262565b60405180910390fd5b600080838152602001908152602001600020600080820160006110269190611ad9565b6001820160006101000a81549073ffffffffffffffffffffffffffffffffffffffff02191690556002820160006101000a81549073ffffffffffffffffffffffffffffffffffffffff0219169055600382016000905560058201600061108c9190611b19565b5050817fe99b6e84b086d8a8eea2860f1a00b0ddd4902c26005cc4938467e0530f55b80560405160405180910390a25050565b600080600084815260200190815260200160002060040160008373ffffffffffffffffffffffffffffffffffffffff1673ffffffffffffffffffffffffffffffffffffffff16815260200190815260200160002060009054906101000a900460ff16905092915050565b60008060606000606060008087815260200190815260200160002060040160003373ffffffffffffffffffffffffffffffffffffffff1673ffffffffffffffffffffffffffffffffffffffff16815260200190815260200160002060009054906101000a900460ff166111d1576040517f08c379a00000000000000000000000000000000000000000000000000000000081526004016111c89061282e565b60405180910390fd5b600080600088815260200190815260200160002090508060010160009054906101000a900473ffffffffffffffffffffffffffffffffffffffff1695508060020160009054906101000a900473ffffffffffffffffffffffffffffffffffffffff16945080600001805461124490612357565b80601f016020809104026020016040519081016040528092919081815260200182805461127090612357565b80156112bd5780601f10611292576101008083540402835291602001916112bd565b820191906000526020600020905b8154815290600101906020018083116112a057829003601f168201915b5050505050935080600301549250600080600090505b8260050180549050811015611392578260040160008460050183815481106112fe576112fd612747565b5b9060005260206000200160009054906101000a900473ffffffffffffffffffffffffffffffffffffffff1673ffffffffffffffffffffffffffffffffffffffff1673ffffffffffffffffffffffffffffffffffffffff16815260200190815260200160002060009054906101000a900460ff1615611385578180611381906126ff565b9250505b80806001019150506112d3565b508067ffffffffffffffff8111156113ad576113ac6122f9565b5b6040519080825280602002602001820160405280156113db5781602001602082028036833780820191505090505b5092506000805b83600501805490508110156114f357600084600501828154811061140957611408612747565b5b9060005260206000200160009054906101000a900473ffffffffffffffffffffffffffffffffffffffff1690508460040160008273ffffffffffffffffffffffffffffffffffffffff1673ffffffffffffffffffffffffffffffffffffffff16815260200190815260200160002060009054906101000a900460ff16156114e55780868480611497906126ff565b9550815181106114aa576114a9612747565b5b602002602001019073ffffffffffffffffffffffffffffffffffffffff16908173ffffffffffffffffffffffffffffffffffffffff16815250505b5080806001019150506113e2565b5050505091939590929450565b813373ffffffffffffffffffffffffffffffffffffffff1660008083815260200190815260200160002060010160009054906101000a900473ffffffffffffffffffffffffffffffffffffffff1673ffffffffffffffffffffffffffffffffffffffff16146115a4576040517f08c379a000000000000000000000000000000000000000000000000000000000815260040161159b90612262565b60405180910390fd5b3373ffffffffffffffffffffffffffffffffffffffff168273ffffffffffffffffffffffffffffffffffffffff1603611612576040517f08c379a00000000000000000000000000000000000000000000000000000000081526004016116099061289a565b60405180910390fd5b60008084815260200190815260200160002060040160008373ffffffffffffffffffffffffffffffffffffffff1673ffffffffffffffffffffffffffffffffffffffff16815260200190815260200160002060009054906101000a900460ff166116b1576040517f08c379a00000000000000000000000000000000000000000000000000000000081526004016116a890612906565b60405180910390fd5b600080600085815260200190815260200160002060040160008473ffffffffffffffffffffffffffffffffffffffff1673ffffffffffffffffffffffffffffffffffffffff16815260200190815260200160002060006101000a81548160ff0219169083151502179055508173ffffffffffffffffffffffffffffffffffffffff16837f125883b94692baebecad9f111ed97ffa626523bbbadc6b0ef85ee1b56b9e52d560405160405180910390a3505050565b600082829050116117ab576040517f08c379a00000000000000000000000000000000000000000000000000000000081526004016117a2906122ce565b60405180910390fd5b600160008154809291906117be906126ff565b919050555060008060006001548152602001908152602001600020905082828260000191826117ee929190612534565b50338160010160006101000a81548173ffffffffffffffffffffffffffffffffffffffff021916908373ffffffffffffffffffffffffffffffffffffffff160217905550338160020160006101000a81548173ffffffffffffffffffffffffffffffffffffffff021916908373ffffffffffffffffffffffffffffffffffffffff16021790555042816003018190555060018160040160003373ffffffffffffffffffffffffffffffffffffffff1673ffffffffffffffffffffffffffffffffffffffff16815260200190815260200160002060006101000a81548160ff02191690831515021790555080600501339080600181540180825580915050600190039060005260206000200160009091909190916101000a81548173ffffffffffffffffffffffffffffffffffffffff021916908373ffffffffffffffffffffffffffffffffffffffff1602179055503373ffffffffffffffffffffffffffffffffffffffff166001547f9394bb113a2aae0d79c8c3d65d69839650a4662ec68b4c095d21c950686fbb7f85854260405161198a93929190612926565b60405180910390a3505050565b606060008083815260200190815260200160002060040160003373ffffffffffffffffffffffffffffffffffffffff1673ffffffffffffffffffffffffffffffffffffffff16815260200190815260200160002060009054906101000a900460ff16611a38576040517f08c379a0000000000000000000000000000000000000000000000000000000008152600401611a2f9061282e565b60405180910390fd5b600080838152602001908152602001600020600501805480602002602001604051908101604052809291908181526020018280548015611acd57602002820191906000526020600020905b8160009054906101000a900473ffffffffffffffffffffffffffffffffffffffff1673ffffffffffffffffffffffffffffffffffffffff1681526020019060010190808311611a83575b50505050509050919050565b508054611ae590612357565b6000825580601f10611af75750611b16565b601f016020900490600052602060002090810190611b159190611b3a565b5b50565b5080546000825590600052602060002090810190611b379190611b3a565b50565b5b80821115611b53576000816000905550600101611b3b565b5090565b600080fd5b600080fd5b6000819050919050565b611b7481611b61565b8114611b7f57600080fd5b50565b600081359050611b9181611b6b565b92915050565b600080fd5b600080fd5b600080fd5b60008083601f840112611bbc57611bbb611b97565b5b8235905067ffffffffffffffff811115611bd957611bd8611b9c565b5b602083019150836001820283011115611bf557611bf4611ba1565b5b9250929050565b600080600060408486031215611c1557611c14611b57565b5b6000611c2386828701611b82565b935050602084013567ffffffffffffffff811115611c4457611c43611b5c565b5b611c5086828701611ba6565b92509250509250925092565b600073ffffffffffffffffffffffffffffffffffffffff82169050919050565b6000611c8782611c5c565b9050919050565b611c9781611c7c565b8114611ca257600080fd5b50565b600081359050611cb481611c8e565b92915050565b60008060408385031215611cd157611cd0611b57565b5b6000611cdf85828601611b82565b9250506020611cf085828601611ca5565b9150509250929050565b600081519050919050565b600082825260208201905092915050565b6000819050602082019050919050565b611d2f81611b61565b82525050565b6000611d418383611d26565b60208301905092915050565b6000602082019050919050565b6000611d6582611cfa565b611d6f8185611d05565b9350611d7a83611d16565b8060005b83811015611dab578151611d928882611d35565b9750611d9d83611d4d565b925050600181019050611d7e565b5085935050505092915050565b600081519050919050565b600082825260208201905092915050565b6000819050602082019050919050565b600081519050919050565b600082825260208201905092915050565b60005b83811015611e1e578082015181840152602081019050611e03565b60008484015250505050565b6000601f19601f8301169050919050565b6000611e4682611de4565b611e508185611def565b9350611e60818560208601611e00565b611e6981611e2a565b840191505092915050565b6000611e808383611e3b565b905092915050565b6000602082019050919050565b6000611ea082611db8565b611eaa8185611dc3565b935083602082028501611ebc85611dd4565b8060005b85811015611ef85784840389528151611ed98582611e74565b9450611ee483611e88565b925060208a01995050600181019050611ec0565b50829750879550505050505092915050565b600081519050919050565b600082825260208201905092915050565b6000819050602082019050919050565b611f3f81611c7c565b82525050565b6000611f518383611f36565b60208301905092915050565b6000602082019050919050565b6000611f7582611f0a565b611f7f8185611f15565b9350611f8a83611f26565b8060005b83811015611fbb578151611fa28882611f45565b9750611fad83611f5d565b925050600181019050611f8e565b5085935050505092915050565b600060a0820190508181036000830152611fe28188611d5a565b90508181036020830152611ff68187611e95565b9050818103604083015261200a8186611f6a565b9050818103606083015261201e8185611f6a565b905081810360808301526120328184611d5a565b90509695505050505050565b61204781611b61565b82525050565b6000602082019050612062600083018461203e565b92915050565b60006020828403121561207e5761207d611b57565b5b600061208c84828501611b82565b91505092915050565b600082825260208201905092915050565b60006120b182611de4565b6120bb8185612095565b93506120cb818560208601611e00565b6120d481611e2a565b840191505092915050565b600060208201905081810360008301526120f981846120a6565b905092915050565b60008115159050919050565b61211681612101565b82525050565b6000602082019050612131600083018461210d565b92915050565b61214081611c7c565b82525050565b600060a08201905061215b6000830188612137565b6121686020830187612137565b818103604083015261217a81866120a6565b9050612189606083018561203e565b818103608083015261219b8184611f6a565b90509695505050505050565b600080602083850312156121be576121bd611b57565b5b600083013567ffffffffffffffff8111156121dc576121db611b5c565b5b6121e885828601611ba6565b92509250509250929050565b6000602082019050818103600083015261220e8184611f6a565b905092915050565b7f4e6f7420746865206f776e657200000000000000000000000000000000000000600082015250565b600061224c600d83612095565b915061225782612216565b602082019050919050565b6000602082019050818103600083015261227b8161223f565b9050919050565b7f4349442063616e6e6f7420626520656d70747900000000000000000000000000600082015250565b60006122b8601383612095565b91506122c382612282565b602082019050919050565b600060208201905081810360008301526122e7816122ab565b9050919050565b600082905092915050565b7f4e487b7100000000000000000000000000000000000000000000000000000000600052604160045260246000fd5b7f4e487b7100000000000000000000000000000000000000000000000000000000600052602260045260246000fd5b6000600282049050600182168061236f57607f821691505b60208210810361238257612381612328565b5b50919050565b60008190508160005260206000209050919050565b60006020601f8301049050919050565b600082821b905092915050565b6000600883026123ea7fffffffffffffffffffffffffffffffffffffffffffffffffffffffffffffffff826123ad565b6123f486836123ad565b95508019841693508086168417925050509392505050565b6000819050919050565b600061243161242c61242784611b61565b61240c565b611b61565b9050919050565b6000819050919050565b61244b83612416565b61245f61245782612438565b8484546123ba565b825550505050565b600090565b612474612467565b61247f818484612442565b505050565b5b818110156124a35761249860008261246c565b600181019050612485565b5050565b601f8211156124e8576124b981612388565b6124c28461239d565b810160208510156124d1578190505b6124e56124dd8561239d565b830182612484565b50505b505050565b600082821c905092915050565b600061250b600019846008026124ed565b1980831691505092915050565b600061252483836124fa565b9150826002028217905092915050565b61253e83836122ee565b67ffffffffffffffff811115612557576125566122f9565b5b6125618254612357565b61256c8282856124a7565b6000601f83116001811461259b5760008415612589578287013590505b6125938582612518565b8655506125fb565b601f1984166125a986612388565b60005b828110156125d1578489013582556001820191506020850194506020810190506125ac565b868310156125ee57848901356125ea601f8916826124fa565b8355505b6001600288020188555050505b50505050505050565b82818337600083830152505050565b600061261f8385612095565b935061262c838584612604565b61263583611e2a565b840190509392505050565b6000602082019050818103600083015261265b818486612613565b90509392505050565b7f496e76616c6964206e6577206f776e6572000000000000000000000000000000600082015250565b600061269a601183612095565b91506126a582612664565b602082019050919050565b600060208201905081810360008301526126c98161268d565b9050919050565b7f4e487b7100000000000000000000000000000000000000000000000000000000600052601160045260246000fd5b600061270a82611b61565b91507fffffffffffffffffffffffffffffffffffffffffffffffffffffffffffffffff820361273c5761273b6126d0565b5b600182019050919050565b7f4e487b7100000000000000000000000000000000000000000000000000000000600052603260045260246000fd5b7f496e76616c696420616464726573730000000000000000000000000000000000600082015250565b60006127ac600f83612095565b91506127b782612776565b602082019050919050565b600060208201905081810360008301526127db8161279f565b9050919050565b7f4163636573732064656e69656400000000000000000000000000000000000000600082015250565b6000612818600d83612095565b9150612823826127e2565b602082019050919050565b600060208201905081810360008301526128478161280b565b9050919050565b7f4f776e65722063616e6e6f74207265766f6b652073656c660000000000000000600082015250565b6000612884601883612095565b915061288f8261284e565b602082019050919050565b600060208201905081810360008301526128b381612877565b9050919050565b7f5573657220646f65736e27742068617665206163636573730000000000000000600082015250565b60006128f0601883612095565b91506128fb826128ba565b602082019050919050565b6000602082019050818103600083015261291f816128e3565b9050919050565b60006040820190508181036000830152612941818587612613565b9050612950602083018461203e565b94935050505056fea2646970667358221220eb9a9aadf8472e40a1cb33bb27ae15fbf1750a386e919aa7cfcf5b257220419d64736f6c634300081c0033",
  "linkReferences": {},
  "deployedLinkReferences": {}
}