{
  "_format": "hh-sol-artifact-1",
  "contractName": "QuantumStorage",
  "sourceName": "contracts/QuantumStorage.sol",
  "abi": [
    {
      "anonymous": false,
      "inputs": [
        {
          "indexed": true,
          "internalType": "uint256",
          "name": "fileId",
          "type": "uint256"
        },
        {
          "indexed": true,
          "internalType": "address",
          "name": "grantee",
          "type": "address"
        }
      ],
      "name": "AccessGranted",
      "type": "event"
    },
    {
      "anonymous": false,
      "inputs": [
        {
          "indexed": true,
          "internalType": "uint256",
          "name": "fileId",
          "type": "uint256"
        },
        {
          "indexed": true,
          "internalType": "address",
          "name": "revokedUser",
          "type": "address"
        }
      ],
      "name": "AccessRevoked",
      "type": "event"
    },
    {
      "anonymous": false,
      "inputs": [
        {
          "indexed": true,
          "internalType": "address",
          "name": "user",
          "type": "address"
        },
        {
          "indexed": true,
          "internalType": "address",
          "name": "backupAddress",
          "type": "address"
        }
      ],
      "name": "BackupAddressSet",
      "type": "event"
    },
    {
      "anonymous": false,
      "inputs": [
        {
          "indexed": true,
          "internalType": "uint256",
          "name": "fileId",
          "type": "uint256"
        }
      ],
      "name": "FileDeleted",
      "type": "event"
    },
    {
      "anonymous": false,
      "inputs": [
        {
          "indexed": true,
          "internalType": "uint256",
          "name": "fileId",
          "type": "uint256"
        },
        {
          "indexed": true,
          "internalType": "address",
          "name": "uploader",
          "type": "address"
        },
        {
          "indexed": false,
          "internalType": "string",
          "name": "cid",
          "type": "string"
        },
        {
          "indexed": false,
          "internalType": "uint256",
          "name": "timestamp",
          "type": "uint256"
        }
      ],
      "name": "FileStored",
      "type": "event"
    },
    {
      "anonymous": false,
      "inputs": [
        {
          "indexed": true,
          "internalType": "uint256",
          "name": "fileId",
          "type": "uint256"
        },
        {
          "indexed": false,
          "internalType": "string",
          "name": "newCID",
          "type": "string"
        }
      ],
      "name": "FileUpdated",
      "type": "event"
    },
    {
      "anonymous": false,
      "inputs": [
        {
          "indexed": true,
          "internalType": "uint256",
          "name": "fileId",
          "type": "uint256"
        },
        {
          "indexed": true,
          "internalType": "address",
          "name": "oldOwner",
          "type": "address"
        },
        {
          "indexed": true,
          "internalType": "address",
          "name": "newOwner",
          "type": "address"
        }
      ],
      "name": "OwnershipTransferred",
      "type": "event"
    },
    {
      "inputs": [
        {
          "internalType": "uint256",
          "name": "fileId",
          "type": "uint256"
        }
      ],
      "name": "deleteFile",
      "outputs": [],
      "stateMutability": "nonpayable",
      "type": "function"
    },
    {
      "inputs": [
        {
          "internalType": "uint256",
          "name": "fileId",
          "type": "uint256"
        }
      ],
      "name": "getAccessHistory",
      "outputs": [
        {
          "internalType": "address[]",
          "name": "",
          "type": "address[]"
        }
      ],
      "stateMutability": "view",
      "type": "function"
    },
    {
      "inputs": [],
      "name": "getAccessibleFiles",
      "outputs": [
        {
          "internalType": "uint256[]",
          "name": "fileIds",
          "type": "uint256[]"
        },
        {
          "internalType": "string[]",
          "name": "cids",
          "type": "string[]"
        },
        {
          "internalType": "address[]",
          "name": "owners",
          "type": "address[]"
        },
        {
          "internalType": "address[]",
          "name": "uploaders",
          "type": "address[]"
        },
        {
          "internalType": "uint256[]",
          "name": "timestamps",
          "type": "uint256[]"
        }
      ],
      "stateMutability": "view",
      "type": "function"
    },
    {
      "inputs": [],
      "name": "getBackupAddress",
      "outputs": [
        {
          "internalType": "address",
          "name": "",
          "type": "address"
        }
      ],
      "stateMutability": "view",
      "type": "function"
    },
    {
      "inputs": [
        {
          "internalType": "uint256",
          "name": "fileId",
          "type": "uint256"
        }
      ],
      "name": "getCID",
      "outputs": [
        {
          "internalType": "string",
          "name": "",
          "type": "string"
        }
      ],
      "stateMutability": "view",
      "type": "function"
    },
    {
      "inputs": [
        {
          "internalType": "uint256",
          "name": "fileId",
          "type": "uint256"
        }
      ],
      "name": "getFileInfo",
      "outputs": [
        {
          "internalType": "address",
          "name": "owner",
          "type": "address"
        },
        {
          "internalType": "address",
          "name": "uploader",
          "type": "address"
        },
        {
          "internalType": "string",
          "name": "cid",
          "type": "string"
        },
        {
          "internalType": "uint256",
          "name": "timestamp",
          "type": "uint256"
        },
        {
          "internalType": "address[]",
          "name": "accessUsers",
          "type": "address[]"
        }
      ],
      "stateMutability": "view",
      "type": "function"
    },
    {
      "inputs": [],
      "name": "getTotalFiles",
      "outputs": [
        {
          "internalType": "uint256",
          "name": "",
          "type": "uint256"
        }
      ],
      "stateMutability": "view",
      "type": "function"
    },
    {
      "inputs": [
        {
          "internalType": "uint256",
          "name": "fileId",
          "type": "uint256"
        },
        {
          "internalType": "address",
          "name": "user",
          "type": "address"
        }
      ],
      "name": "grantAccess",
      "outputs": [],
      "stateMutability": "nonpayable",
      "type": "function"
    },
    {
      "inputs": [
        {
          "internalType": "uint256",
          "name": "fileId",
          "type": "uint256"
        },
        {
          "internalType": "address",
          "name": "user",
          "type": "address"
        }
      ],
      "name": "hasAccess",
      "outputs": [
        {
          "internalType": "bool",
          "name": "",
          "type": "bool"
        }
      ],
      "stateMutability": "view",
      "type": "function"
    },
    {
      "inputs": [
        {
          "internalType": "uint256",
          "name": "fileId",
          "type": "uint256"
        },
        {
          "internalType": "address",
          "name": "user",
          "type": "address"
        }
      ],
      "name": "revokeAccess",
      "outputs": [],
      "stateMutability": "nonpayable",
      "type": "function"
    },
    {
      "inputs": [
        {
          "internalType": "address",
          "name": "backupAddress",
          "type": "address"
        }
      ],
      "name": "setBackupAddress",
      "outputs": [],
      "stateMutability": "nonpayable",
      "type": "function"
    },
    {
      "inputs": [
        {
          "internalType": "uint256",
          "name": "fileId",
          "type": "uint256"
        },
        {
          "internalType": "address",
          "name": "newOwner",
          "type": "address"
        }
      ],
      "name": "transferOwnership",
      "outputs": [],
      "stateMutability": "nonpayable",
      "type": "function"
    },
    {
      "inputs": [
        {
          "internalType": "uint256",
          "name": "fileId",
          "type": "uint256"
        },
        {
          "internalType": "string",
          "name": "newCID",
          "type": "string"
        }
      ],
      "name": "updateFileCID",
      "outputs": [],
      "stateMutability": "nonpayable",
      "type": "function"
    },
    {
      "inputs": [
        {
          "internalType": "string",
          "name": "cid",
          "type": "string"
        }
      ],
      "name": "uploadFile",
      "outputs": [],
      "stateMutability": "nonpayable",
      "type": "function"
    }
  ],
  "bytecode": "0x6080604052348015600f57600080fd5b50612c638061001f6000396000f3fe608060405234801561001057600080fd5b50600436106100ea5760003560e01c8063913a2ffe1161008c578063d7d5603511610066578063d7d5603514610239578063d9a5ec1b1461026d578063e37ffc3014610289578063f2cec6ee146102a5576100ea565b8063913a2ffe146101bd578063c5b42006146101ed578063ced1419814610209576100ea565b806343f46e9e116100c857806343f46e9e14610145578063635fd5801461016157806365dd152c14610183578063766e0d331461019f576100ea565b80630b10dcd0146100ef5780630ff615381461010b57806329507f7314610129575b600080fd5b61010960048036038101906101049190611e1d565b6102d5565b005b610113610424565b6040516101209190611ebe565b60405180910390f35b610143600480360381019061013e9190611f05565b61048b565b005b61015f600480360381019061015a9190611f45565b61076e565b005b6101696108b8565b60405161017a959493929190612240565b60405180910390f35b61019d60048036038101906101989190611f05565b610d8e565b005b6101a7611030565b6040516101b491906122c5565b60405180910390f35b6101d760048036038101906101d291906122e0565b61103a565b6040516101e49190612357565b60405180910390f35b610207600480360381019061020291906122e0565b611180565b005b610223600480360381019061021e9190611f05565b6112e0565b6040516102309190612394565b60405180910390f35b610253600480360381019061024e91906122e0565b61134a565b6040516102649594939291906123af565b60405180910390f35b61028760048036038101906102829190611f05565b611721565b005b6102a3600480360381019061029e9190612410565b611986565b005b6102bf60048036038101906102ba91906122e0565b611bb8565b6040516102cc919061245d565b60405180910390f35b823373ffffffffffffffffffffffffffffffffffffffff1660008083815260200190815260200160002060010160009054906101000a900473ffffffffffffffffffffffffffffffffffffffff1673ffffffffffffffffffffffffffffffffffffffff1614610379576040517f08c379a0000000000000000000000000000000000000000000000000000000008152600401610370906124cb565b60405180910390fd5b600083839050116103bf576040517f08c379a00000000000000000000000000000000000000000000000000000000081526004016103b690612537565b60405180910390fd5b828260008087815260200190815260200160002060000191826103e392919061279d565b50837f6d7ea6878c3777785e2c3ccd60139ee085ea9cb5f39bee41048af1b3ae9f5f1a84846040516104169291906128a9565b60405180910390a250505050565b6000600260003373ffffffffffffffffffffffffffffffffffffffff1673ffffffffffffffffffffffffffffffffffffffff16815260200190815260200160002060009054906101000a900473ffffffffffffffffffffffffffffffffffffffff16905090565b813373ffffffffffffffffffffffffffffffffffffffff1660008083815260200190815260200160002060010160009054906101000a900473ffffffffffffffffffffffffffffffffffffffff1673ffffffffffffffffffffffffffffffffffffffff161461052f576040517f08c379a0000000000000000000000000000000000000000000000000000000008152600401610526906124cb565b60405180910390fd5b600073ffffffffffffffffffffffffffffffffffffffff168273ffffffffffffffffffffffffffffffffffffffff160361059e576040517f08c379a000000000000000000000000000000000000000000000000000000000815260040161059590612919565b60405180910390fd5b600080600085815260200190815260200160002060010160009054906101000a900473ffffffffffffffffffffffffffffffffffffffff1690508260008086815260200190815260200160002060010160006101000a81548173ffffffffffffffffffffffffffffffffffffffff021916908373ffffffffffffffffffffffffffffffffffffffff160217905550600160008086815260200190815260200160002060040160008573ffffffffffffffffffffffffffffffffffffffff1673ffffffffffffffffffffffffffffffffffffffff16815260200190815260200160002060006101000a81548160ff021916908315150217905550600080858152602001908152602001600020600501839080600181540180825580915050600190039060005260206000200160009091909190916101000a81548173ffffffffffffffffffffffffffffffffffffffff021916908373ffffffffffffffffffffffffffffffffffffffff1602179055508273ffffffffffffffffffffffffffffffffffffffff168173ffffffffffffffffffffffffffffffffffffffff16857f16b85f49bf01212961345d3016c9a531894accf62eb7680f2045d79185cc0ec060405160405180910390a450505050565b600073ffffffffffffffffffffffffffffffffffffffff168173ffffffffffffffffffffffffffffffffffffffff16036107dd576040517f08c379a00000000000000000000000000000000000000000000000000000000081526004016107d490612985565b60405180910390fd5b80600260003373ffffffffffffffffffffffffffffffffffffffff1673ffffffffffffffffffffffffffffffffffffffff16815260200190815260200160002060006101000a81548173ffffffffffffffffffffffffffffffffffffffff021916908373ffffffffffffffffffffffffffffffffffffffff1602179055508073ffffffffffffffffffffffffffffffffffffffff163373ffffffffffffffffffffffffffffffffffffffff167f45dff347918b7e40191bc21c9ccae9c8162b32e2b6cfe1911cf85114f4430f2a60405160405180910390a350565b6060806060806060600080600190505b60015481116109585760008082815260200190815260200160002060040160003373ffffffffffffffffffffffffffffffffffffffff1673ffffffffffffffffffffffffffffffffffffffff16815260200190815260200160002060009054906101000a900460ff1615610945578180610941906129d4565b9250505b8080610950906129d4565b9150506108c8565b508067ffffffffffffffff81111561097357610972612562565b5b6040519080825280602002602001820160405280156109a15781602001602082028036833780820191505090505b5095508067ffffffffffffffff8111156109be576109bd612562565b5b6040519080825280602002602001820160405280156109f157816020015b60608152602001906001900390816109dc5790505b5094508067ffffffffffffffff811115610a0e57610a0d612562565b5b604051908082528060200260200182016040528015610a3c5781602001602082028036833780820191505090505b5093508067ffffffffffffffff811115610a5957610a58612562565b5b604051908082528060200260200182016040528015610a875781602001602082028036833780820191505090505b5092508067ffffffffffffffff811115610aa457610aa3612562565b5b604051908082528060200260200182016040528015610ad25781602001602082028036833780820191505090505b509150600080600190505b6001548111610d845760008082815260200190815260200160002060040160003373ffffffffffffffffffffffffffffffffffffffff1673ffffffffffffffffffffffffffffffffffffffff16815260200190815260200160002060009054906101000a900460ff1615610d715780888381518110610b5f57610b5e612a1c565b5b6020026020010181815250506000808281526020019081526020016000206000018054610b8b906125c0565b80601f0160208091040260200160405190810160405280929190818152602001828054610bb7906125c0565b8015610c045780601f10610bd957610100808354040283529160200191610c04565b820191906000526020600020905b815481529060010190602001808311610be757829003601f168201915b5050505050878381518110610c1c57610c1b612a1c565b5b602002602001018190525060008082815260200190815260200160002060010160009054906101000a900473ffffffffffffffffffffffffffffffffffffffff16868381518110610c7057610c6f612a1c565b5b602002602001019073ffffffffffffffffffffffffffffffffffffffff16908173ffffffffffffffffffffffffffffffffffffffff168152505060008082815260200190815260200160002060020160009054906101000a900473ffffffffffffffffffffffffffffffffffffffff16858381518110610cf357610cf2612a1c565b5b602002602001019073ffffffffffffffffffffffffffffffffffffffff16908173ffffffffffffffffffffffffffffffffffffffff168152505060008082815260200190815260200160002060030154848381518110610d5657610d55612a1c565b5b6020026020010181815250508180610d6d906129d4565b9250505b8080610d7c906129d4565b915050610add565b5050509091929394565b813373ffffffffffffffffffffffffffffffffffffffff1660008083815260200190815260200160002060010160009054906101000a900473ffffffffffffffffffffffffffffffffffffffff1673ffffffffffffffffffffffffffffffffffffffff1614610e32576040517f08c379a0000000000000000000000000000000000000000000000000000000008152600401610e29906124cb565b60405180910390fd5b600073ffffffffffffffffffffffffffffffffffffffff168273ffffffffffffffffffffffffffffffffffffffff1603610ea1576040517f08c379a0000000000000000000000000000000000000000000000000000000008152600401610e9890612a97565b60405180910390fd5b60008084815260200190815260200160002060040160008373ffffffffffffffffffffffffffffffffffffffff1673ffffffffffffffffffffffffffffffffffffffff16815260200190815260200160002060009054906101000a900460ff1661102b57600160008085815260200190815260200160002060040160008473ffffffffffffffffffffffffffffffffffffffff1673ffffffffffffffffffffffffffffffffffffffff16815260200190815260200160002060006101000a81548160ff021916908315150217905550600080848152602001908152602001600020600501829080600181540180825580915050600190039060005260206000200160009091909190916101000a81548173ffffffffffffffffffffffffffffffffffffffff021916908373ffffffffffffffffffffffffffffffffffffffff1602179055508173ffffffffffffffffffffffffffffffffffffffff16837f3c3a9147a1fc73dd51a32f4d10c43d457e8cb826eb6f35cac6349eb965ba82b460405160405180910390a35b505050565b6000600154905090565b606060008083815260200190815260200160002060040160003373ffffffffffffffffffffffffffffffffffffffff1673ffffffffffffffffffffffffffffffffffffffff16815260200190815260200160002060009054906101000a900460ff166110db576040517f08c379a00000000000000000000000000000000000000000000000000000000081526004016110d290612b03565b60405180910390fd5b60008083815260200190815260200160002060000180546110fb906125c0565b80601f0160208091040260200160405190810160405280929190818152602001828054611127906125c0565b80156111745780601f1061114957610100808354040283529160200191611174565b820191906000526020600020905b81548152906001019060200180831161115757829003601f168201915b50505050509050919050565b803373ffffffffffffffffffffffffffffffffffffffff1660008083815260200190815260200160002060010160009054906101000a900473ffffffffffffffffffffffffffffffffffffffff1673ffffffffffffffffffffffffffffffffffffffff1614611224576040517f08c379a000000000000000000000000000000000000000000000000000000000815260040161121b906124cb565b60405180910390fd5b600080838152602001908152602001600020600080820160006112479190611cfa565b6001820160006101000a81549073ffffffffffffffffffffffffffffffffffffffff02191690556002820160006101000a81549073ffffffffffffffffffffffffffffffffffffffff021916905560038201600090556005820160006112ad9190611d3a565b5050817fe99b6e84b086d8a8eea2860f1a00b0ddd4902c26005cc4938467e0530f55b80560405160405180910390a25050565b600080600084815260200190815260200160002060040160008373ffffffffffffffffffffffffffffffffffffffff1673ffffffffffffffffffffffffffffffffffffffff16815260200190815260200160002060009054906101000a900460ff16905092915050565b60008060606000606060008087815260200190815260200160002060040160003373ffffffffffffffffffffffffffffffffffffffff1673ffffffffffffffffffffffffffffffffffffffff16815260200190815260200160002060009054906101000a900460ff166113f2576040517f08c379a00000000000000000000000000000000000000000000000000000000081526004016113e990612b03565b60405180910390fd5b600080600088815260200190815260200160002090508060010160009054906101000a900473ffffffffffffffffffffffffffffffffffffffff1695508060020160009054906101000a900473ffffffffffffffffffffffffffffffffffffffff169450806000018054611465906125c0565b80601f0160208091040260200160405190810160405280929190818152602001828054611491906125c0565b80156114de5780601f106114b3576101008083540402835291602001916114de565b820191906000526020600020905b8154815290600101906020018083116114c157829003601f168201915b5050505050935080600301549250600080600090505b82600501805490508110156115b35782600401600084600501838154811061151f5761151e612a1c565b5b9060005260206000200160009054906101000a900473ffffffffffffffffffffffffffffffffffffffff1673ffffffffffffffffffffffffffffffffffffffff1673ffffffffffffffffffffffffffffffffffffffff16815260200190815260200160002060009054906101000a900460ff16156115a65781806115a2906129d4565b9250505b80806001019150506114f4565b508067ffffffffffffffff8111156115ce576115cd612562565b5b6040519080825280602002602001820160405280156115fc5781602001602082028036833780820191505090505b5092506000805b836005018054905081101561171457600084600501828154811061162a57611629612a1c565b5b9060005260206000200160009054906101000a900473ffffffffffffffffffffffffffffffffffffffff1690508460040160008273ffffffffffffffffffffffffffffffffffffffff1673ffffffffffffffffffffffffffffffffffffffff16815260200190815260200160002060009054906101000a900460ff161561170657808684806116b8906129d4565b9550815181106116cb576116ca612a1c565b5b602002602001019073ffffffffffffffffffffffffffffffffffffffff16908173ffffffffffffffffffffffffffffffffffffffff16815250505b508080600101915050611603565b5050505091939590929450565b813373ffffffffffffffffffffffffffffffffffffffff1660008083815260200190815260200160002060010160009054906101000a900473ffffffffffffffffffffffffffffffffffffffff1673ffffffffffffffffffffffffffffffffffffffff16146117c5576040517f08c379a00000000000000000000000000000000000000000000000000000000081526004016117bc906124cb565b60405180910390fd5b3373ffffffffffffffffffffffffffffffffffffffff168273ffffffffffffffffffffffffffffffffffffffff1603611833576040517f08c379a000000000000000000000000000000000000000000000000000000000815260040161182a90612b6f565b60405180910390fd5b60008084815260200190815260200160002060040160008373ffffffffffffffffffffffffffffffffffffffff1673ffffffffffffffffffffffffffffffffffffffff16815260200190815260200160002060009054906101000a900460ff166118d2576040517f08c379a00000000000000000000000000000000000000000000000000000000081526004016118c990612bdb565b60405180910390fd5b600080600085815260200190815260200160002060040160008473ffffffffffffffffffffffffffffffffffffffff1673ffffffffffffffffffffffffffffffffffffffff16815260200190815260200160002060006101000a81548160ff0219169083151502179055508173ffffffffffffffffffffffffffffffffffffffff16837f125883b94692baebecad9f111ed97ffa626523bbbadc6b0ef85ee1b56b9e52d560405160405180910390a3505050565b600082829050116119cc576040517f08c379a00000000000000000000000000000000000000000000000000000000081526004016119c390612537565b60405180910390fd5b600160008154809291906119df906129d4565b91905055506000806000600154815260200190815260200160002090508282826000019182611a0f92919061279d565b50338160010160006101000a81548173ffffffffffffffffffffffffffffffffffffffff021916908373ffffffffffffffffffffffffffffffffffffffff160217905550338160020160006101000a81548173ffffffffffffffffffffffffffffffffffffffff021916908373ffffffffffffffffffffffffffffffffffffffff16021790555042816003018190555060018160040160003373ffffffffffffffffffffffffffffffffffffffff1673ffffffffffffffffffffffffffffffffffffffff16815260200190815260200160002060006101000a81548160ff02191690831515021790555080600501339080600181540180825580915050600190039060005260206000200160009091909190916101000a81548173ffffffffffffffffffffffffffffffffffffffff021916908373ffffffffffffffffffffffffffffffffffffffff1602179055503373ffffffffffffffffffffffffffffffffffffffff166001547f9394bb113a2aae0d79c8c3d65d69839650a4662ec68b4c095d21c950686fbb7f858542604051611bab93929190612bfb565b60405180910390a3505050565b606060008083815260200190815260200160002060040160003373ffffffffffffffffffffffffffffffffffffffff1673ffffffffffffffffffffffffffffffffffffffff16815260200190815260200160002060009054906101000a900460ff16611c59576040517f08c379a0000000000000000000000000000000000000000000000000000000008152600401611c5090612b03565b60405180910390fd5b600080838152602001908152602001600020600501805480602002602001604051908101604052809291908181526020018280548015611cee57602002820191906000526020600020905b8160009054906101000a900473ffffffffffffffffffffffffffffffffffffffff1673ffffffffffffffffffffffffffffffffffffffff1681526020019060010190808311611ca4575b50505050509050919050565b508054611d06906125c0565b6000825580601f10611d185750611d37565b601f016020900490600052602060002090810190611d369190611d5b565b5b50565b5080546000825590600052602060002090810190611d589190611d5b565b50565b5b80821115611d74576000816000905550600101611d5c565b5090565b600080fd5b600080fd5b6000819050919050565b611d9581611d82565b8114611da057600080fd5b50565b600081359050611db281611d8c565b92915050565b600080fd5b600080fd5b600080fd5b60008083601f840112611ddd57611ddc611db8565b5b8235905067ffffffffffffffff811115611dfa57611df9611dbd565b5b602083019150836001820283011115611e1657611e15611dc2565b5b9250929050565b600080600060408486031215611e3657611e35611d78565b5b6000611e4486828701611da3565b935050602084013567ffffffffffffffff811115611e6557611e64611d7d565b5b611e7186828701611dc7565b92509250509250925092565b600073ffffffffffffffffffffffffffffffffffffffff82169050919050565b6000611ea882611e7d565b9050919050565b611eb881611e9d565b82525050565b6000602082019050611ed36000830184611eaf565b92915050565b611ee281611e9d565b8114611eed57600080fd5b50565b600081359050611eff81611ed9565b92915050565b60008060408385031215611f1c57611f1b611d78565b5b6000611f2a85828601611da3565b9250506020611f3b85828601611ef0565b9150509250929050565b600060208284031215611f5b57611f5a611d78565b5b6000611f6984828501611ef0565b91505092915050565b600081519050919050565b600082825260208201905092915050565b6000819050602082019050919050565b611fa781611d82565b82525050565b6000611fb98383611f9e565b60208301905092915050565b6000602082019050919050565b6000611fdd82611f72565b611fe78185611f7d565b9350611ff283611f8e565b8060005b8381101561202357815161200a8882611fad565b975061201583611fc5565b925050600181019050611ff6565b5085935050505092915050565b600081519050919050565b600082825260208201905092915050565b6000819050602082019050919050565b600081519050919050565b600082825260208201905092915050565b60005b8381101561209657808201518184015260208101905061207b565b60008484015250505050565b6000601f19601f8301169050919050565b60006120be8261205c565b6120c88185612067565b93506120d8818560208601612078565b6120e1816120a2565b840191505092915050565b60006120f883836120b3565b905092915050565b6000602082019050919050565b600061211882612030565b612122818561203b565b9350836020820285016121348561204c565b8060005b85811015612170578484038952815161215185826120ec565b945061215c83612100565b925060208a01995050600181019050612138565b50829750879550505050505092915050565b600081519050919050565b600082825260208201905092915050565b6000819050602082019050919050565b6121b781611e9d565b82525050565b60006121c983836121ae565b60208301905092915050565b6000602082019050919050565b60006121ed82612182565b6121f7818561218d565b93506122028361219e565b8060005b8381101561223357815161221a88826121bd565b9750612225836121d5565b925050600181019050612206565b5085935050505092915050565b600060a082019050818103600083015261225a8188611fd2565b9050818103602083015261226e818761210d565b9050818103604083015261228281866121e2565b9050818103606083015261229681856121e2565b905081810360808301526122aa8184611fd2565b90509695505050505050565b6122bf81611d82565b82525050565b60006020820190506122da60008301846122b6565b92915050565b6000602082840312156122f6576122f5611d78565b5b600061230484828501611da3565b91505092915050565b600082825260208201905092915050565b60006123298261205c565b612333818561230d565b9350612343818560208601612078565b61234c816120a2565b840191505092915050565b60006020820190508181036000830152612371818461231e565b905092915050565b60008115159050919050565b61238e81612379565b82525050565b60006020820190506123a96000830184612385565b92915050565b600060a0820190506123c46000830188611eaf565b6123d16020830187611eaf565b81810360408301526123e3818661231e565b90506123f260608301856122b6565b818103608083015261240481846121e2565b90509695505050505050565b6000806020838503121561242757612426611d78565b5b600083013567ffffffffffffffff81111561244557612444611d7d565b5b61245185828601611dc7565b92509250509250929050565b6000602082019050818103600083015261247781846121e2565b905092915050565b7f4e6f7420746865206f776e657200000000000000000000000000000000000000600082015250565b60006124b5600d8361230d565b91506124c08261247f565b602082019050919050565b600060208201905081810360008301526124e4816124a8565b9050919050565b7f4349442063616e6e6f7420626520656d70747900000000000000000000000000600082015250565b600061252160138361230d565b915061252c826124eb565b602082019050919050565b6000602082019050818103600083015261255081612514565b9050919050565b600082905092915050565b7f4e487b7100000000000000000000000000000000000000000000000000000000600052604160045260246000fd5b7f4e487b7100000000000000000000000000000000000000000000000000000000600052602260045260246000fd5b600060028204905060018216806125d857607f821691505b6020821081036125eb576125ea612591565b5b50919050565b60008190508160005260206000209050919050565b60006020601f8301049050919050565b600082821b905092915050565b6000600883026126537fffffffffffffffffffffffffffffffffffffffffffffffffffffffffffffffff82612616565b61265d8683612616565b95508019841693508086168417925050509392505050565b6000819050919050565b600061269a61269561269084611d82565b612675565b611d82565b9050919050565b6000819050919050565b6126b48361267f565b6126c86126c0826126a1565b848454612623565b825550505050565b600090565b6126dd6126d0565b6126e88184846126ab565b505050565b5b8181101561270c576127016000826126d5565b6001810190506126ee565b5050565b601f82111561275157612722816125f1565b61272b84612606565b8101602085101561273a578190505b61274e61274685612606565b8301826126ed565b50505b505050565b600082821c905092915050565b600061277460001984600802612756565b1980831691505092915050565b600061278d8383612763565b9150826002028217905092915050565b6127a78383612557565b67ffffffffffffffff8111156127c0576127bf612562565b5b6127ca82546125c0565b6127d5828285612710565b6000601f83116001811461280457600084156127f2578287013590505b6127fc8582612781565b865550612864565b601f198416612812866125f1565b60005b8281101561283a57848901358255600182019150602085019450602081019050612815565b868310156128575784890135612853601f891682612763565b8355505b6001600288020188555050505b50505050505050565b82818337600083830152505050565b6000612888838561230d565b935061289583858461286d565b61289e836120a2565b840190509392505050565b600060208201905081810360008301526128c481848661287c565b90509392505050565b7f496e76616c6964206e6577206f776e6572000000000000000000000000000000600082015250565b600061290360118361230d565b915061290e826128cd565b602082019050919050565b60006020820190508181036000830152612932816128f6565b9050919050565b7f496e76616c6964206261636b7570206164647265737300000000000000000000600082015250565b600061296f60168361230d565b915061297a82612939565b602082019050919050565b6000602082019050818103600083015261299e81612962565b9050919050565b7f4e487b7100000000000000000000000000000000000000000000000000000000600052601160045260246000fd5b60006129df82611d82565b91507fffffffffffffffffffffffffffffffffffffffffffffffffffffffffffffffff8203612a1157612a106129a5565b5b600182019050919050565b7f4e487b7100000000000000000000000000000000000000000000000000000000600052603260045260246000fd5b7f496e76616c696420616464726573730000000000000000000000000000000000600082015250565b6000612a81600f8361230d565b9150612a8c82612a4b565b602082019050919050565b60006020820190508181036000830152612ab081612a74565b9050919050565b7f4163636573732064656e69656400000000000000000000000000000000000000600082015250565b6000612aed600d8361230d565b9150612af882612ab7565b602082019050919050565b60006020820190508181036000830152612b1c81612ae0565b9050919050565b7f4f776e65722063616e6e6f74207265766f6b652073656c660000000000000000600082015250565b6000612b5960188361230d565b9150612b6482612b23565b602082019050919050565b60006020820190508181036000830152612b8881612b4c565b9050919050565b7f5573657220646f65736e27742068617665206163636573730000000000000000600082015250565b6000612bc560188361230d565b9150612bd082612b8f565b602082019050919050565b60006020820190508181036000830152612bf481612bb8565b9050919050565b60006040820190508181036000830152612c1681858761287c565b9050612c2560208301846122b6565b94935050505056fea264697066735822122012a91fd384d29c94035fe42cec74b3efeece15ef25be4fffe97e3145a8b64f2d64736f6c634300081c0033",
  "linkReferences": {},
  "deployedLinkReferences": {}
}