{
  "_format": "hh-sol-artifact-1",
  "contractName": "QuantumStorage",
  "sourceName": "contracts/QuantumStorage.sol",
  "abi": [
    {
      "anonymous": false,
      "inputs": [
        {
          "indexed": true,
          "internalType": "uint256",
          "name": "fileId",
          "type": "uint256"
        },
        {
          "indexed": true,
          "internalType": "address",
          "name": "grantee",
          "type": "address"
        }
      ],
      "name": "AccessGranted",
      "type": "event"
    },
    {
      "anonymous": false,
      "inputs": [
        {
          "indexed": true,
          "internalType": "uint256",
          "name": "fileId",
          "type": "uint256"
        },
        {
          "indexed": true,
          "internalType": "address",
          "name": "revokedUser",
          "type": "address"
        }
      ],
      "name": "AccessRevoked",
      "type": "event"
    },
    {
      "anonymous": false,
      "inputs": [
        {
          "indexed": true,
          "internalType": "uint256",
          "name": "fileId",
          "type": "uint256"
        },
        {
          "indexed": true,
          "internalType": "address",
          "name": "uploader",
          "type": "address"
        },
        {
          "indexed": false,
          "internalType": "string",
          "name": "cid",
          "type": "string"
        },
        {
          "indexed": false,
          "internalType": "uint256",
          "name": "timestamp",
          "type": "uint256"
        }
      ],
      "name": "FileStored",
      "type": "event"
    },
    {
      "anonymous": false,
      "inputs": [
        {
          "indexed": true,
          "internalType": "uint256",
          "name": "fileId",
          "type": "uint256"
        },
        {
          "indexed": true,
          "internalType": "address",
          "name": "oldOwner",
          "type": "address"
        },
        {
          "indexed": true,
          "internalType": "address",
          "name": "newOwner",
          "type": "address"
        }
      ],
      "name": "OwnershipTransferred",
      "type": "event"
    },
    {
      "inputs": [
        {
          "internalType": "uint256",
          "name": "fileId",
          "type": "uint256"
        }
      ],
      "name": "getAccessHistory",
      "outputs": [
        {
          "internalType": "address[]",
          "name": "",
          "type": "address[]"
        }
      ],
      "stateMutability": "view",
      "type": "function"
    },
    {
      "inputs": [],
      "name": "getAccessibleFiles",
      "outputs": [
        {
          "internalType": "uint256[]",
          "name": "fileIds",
          "type": "uint256[]"
        },
        {
          "internalType": "string[]",
          "name": "cids",
          "type": "string[]"
        },
        {
          "internalType": "address[]",
          "name": "owners",
          "type": "address[]"
        },
        {
          "internalType": "address[]",
          "name": "uploaders",
          "type": "address[]"
        },
        {
          "internalType": "uint256[]",
          "name": "timestamps",
          "type": "uint256[]"
        }
      ],
      "stateMutability": "view",
      "type": "function"
    },
    {
      "inputs": [
        {
          "internalType": "uint256",
          "name": "fileId",
          "type": "uint256"
        }
      ],
      "name": "getCID",
      "outputs": [
        {
          "internalType": "string",
          "name": "",
          "type": "string"
        }
      ],
      "stateMutability": "view",
      "type": "function"
    },
    {
      "inputs": [
        {
          "internalType": "uint256",
          "name": "fileId",
          "type": "uint256"
        }
      ],
      "name": "getFileInfo",
      "outputs": [
        {
          "internalType": "address",
          "name": "owner",
          "type": "address"
        },
        {
          "internalType": "address",
          "name": "uploader",
          "type": "address"
        },
        {
          "internalType": "string",
          "name": "cid",
          "type": "string"
        },
        {
          "internalType": "uint256",
          "name": "timestamp",
          "type": "uint256"
        },
        {
          "internalType": "address[]",
          "name": "accessUsers",
          "type": "address[]"
        }
      ],
      "stateMutability": "view",
      "type": "function"
    },
    {
      "inputs": [],
      "name": "getTotalFiles",
      "outputs": [
        {
          "internalType": "uint256",
          "name": "",
          "type": "uint256"
        }
      ],
      "stateMutability": "view",
      "type": "function"
    },
    {
      "inputs": [
        {
          "internalType": "uint256",
          "name": "fileId",
          "type": "uint256"
        },
        {
          "internalType": "address",
          "name": "user",
          "type": "address"
        }
      ],
      "name": "grantAccess",
      "outputs": [],
      "stateMutability": "nonpayable",
      "type": "function"
    },
    {
      "inputs": [
        {
          "internalType": "uint256",
          "name": "fileId",
          "type": "uint256"
        },
        {
          "internalType": "address",
          "name": "user",
          "type": "address"
        }
      ],
      "name": "hasAccess",
      "outputs": [
        {
          "internalType": "bool",
          "name": "",
          "type": "bool"
        }
      ],
      "stateMutability": "view",
      "type": "function"
    },
    {
      "inputs": [
        {
          "internalType": "uint256",
          "name": "fileId",
          "type": "uint256"
        },
        {
          "internalType": "address",
          "name": "user",
          "type": "address"
        }
      ],
      "name": "revokeAccess",
      "outputs": [],
      "stateMutability": "nonpayable",
      "type": "function"
    },
    {
      "inputs": [
        {
          "internalType": "uint256",
          "name": "fileId",
          "type": "uint256"
        },
        {
          "internalType": "address",
          "name": "newOwner",
          "type": "address"
        }
      ],
      "name": "transferOwnership",
      "outputs": [],
      "stateMutability": "nonpayable",
      "type": "function"
    },
    {
      "inputs": [
        {
          "internalType": "string",
          "name": "cid",
          "type": "string"
        }
      ],
      "name": "uploadFile",
      "outputs": [],
      "stateMutability": "nonpayable",
      "type": "function"
    }
  ],
  "bytecode": "0x6080604052348015600f57600080fd5b5061258f8061001f6000396000f3fe608060405234801561001057600080fd5b506004361061009e5760003560e01c8063ced1419811610066578063ced141981461014b578063d7d560351461017b578063d9a5ec1b146101af578063e37ffc30146101cb578063f2cec6ee146101e75761009e565b806329507f73146100a3578063635fd580146100bf57806365dd152c146100e1578063766e0d33146100fd578063913a2ffe1461011b575b600080fd5b6100bd60048036038101906100b8919061187a565b610217565b005b6100c76104fa565b6040516100d8959493929190611b88565b60405180910390f35b6100fb60048036038101906100f6919061187a565b6109d0565b005b610105610c72565b6040516101129190611c0d565b60405180910390f35b61013560048036038101906101309190611c28565b610c7c565b6040516101429190611c9f565b60405180910390f35b6101656004803603810190610160919061187a565b610dc2565b6040516101729190611cdc565b60405180910390f35b61019560048036038101906101909190611c28565b610e2c565b6040516101a6959493929190611d06565b60405180910390f35b6101c960048036038101906101c4919061187a565b611203565b005b6101e560048036038101906101e09190611dcc565b611468565b005b61020160048036038101906101fc9190611c28565b61169a565b60405161020e9190611e19565b60405180910390f35b813373ffffffffffffffffffffffffffffffffffffffff1660008083815260200190815260200160002060010160009054906101000a900473ffffffffffffffffffffffffffffffffffffffff1673ffffffffffffffffffffffffffffffffffffffff16146102bb576040517f08c379a00000000000000000000000000000000000000000000000000000000081526004016102b290611e87565b60405180910390fd5b600073ffffffffffffffffffffffffffffffffffffffff168273ffffffffffffffffffffffffffffffffffffffff160361032a576040517f08c379a000000000000000000000000000000000000000000000000000000000815260040161032190611ef3565b60405180910390fd5b600080600085815260200190815260200160002060010160009054906101000a900473ffffffffffffffffffffffffffffffffffffffff1690508260008086815260200190815260200160002060010160006101000a81548173ffffffffffffffffffffffffffffffffffffffff021916908373ffffffffffffffffffffffffffffffffffffffff160217905550600160008086815260200190815260200160002060040160008573ffffffffffffffffffffffffffffffffffffffff1673ffffffffffffffffffffffffffffffffffffffff16815260200190815260200160002060006101000a81548160ff021916908315150217905550600080858152602001908152602001600020600501839080600181540180825580915050600190039060005260206000200160009091909190916101000a81548173ffffffffffffffffffffffffffffffffffffffff021916908373ffffffffffffffffffffffffffffffffffffffff1602179055508273ffffffffffffffffffffffffffffffffffffffff168173ffffffffffffffffffffffffffffffffffffffff16857f16b85f49bf01212961345d3016c9a531894accf62eb7680f2045d79185cc0ec060405160405180910390a450505050565b6060806060806060600080600190505b600154811161059a5760008082815260200190815260200160002060040160003373ffffffffffffffffffffffffffffffffffffffff1673ffffffffffffffffffffffffffffffffffffffff16815260200190815260200160002060009054906101000a900460ff161561058757818061058390611f42565b9250505b808061059290611f42565b91505061050a565b508067ffffffffffffffff8111156105b5576105b4611f8a565b5b6040519080825280602002602001820160405280156105e35781602001602082028036833780820191505090505b5095508067ffffffffffffffff811115610600576105ff611f8a565b5b60405190808252806020026020018201604052801561063357816020015b606081526020019060019003908161061e5790505b5094508067ffffffffffffffff8111156106505761064f611f8a565b5b60405190808252806020026020018201604052801561067e5781602001602082028036833780820191505090505b5093508067ffffffffffffffff81111561069b5761069a611f8a565b5b6040519080825280602002602001820160405280156106c95781602001602082028036833780820191505090505b5092508067ffffffffffffffff8111156106e6576106e5611f8a565b5b6040519080825280602002602001820160405280156107145781602001602082028036833780820191505090505b509150600080600190505b60015481116109c65760008082815260200190815260200160002060040160003373ffffffffffffffffffffffffffffffffffffffff1673ffffffffffffffffffffffffffffffffffffffff16815260200190815260200160002060009054906101000a900460ff16156109b357808883815181106107a1576107a0611fb9565b5b60200260200101818152505060008082815260200190815260200160002060000180546107cd90612017565b80601f01602080910402602001604051908101604052809291908181526020018280546107f990612017565b80156108465780601f1061081b57610100808354040283529160200191610846565b820191906000526020600020905b81548152906001019060200180831161082957829003601f168201915b505050505087838151811061085e5761085d611fb9565b5b602002602001018190525060008082815260200190815260200160002060010160009054906101000a900473ffffffffffffffffffffffffffffffffffffffff168683815181106108b2576108b1611fb9565b5b602002602001019073ffffffffffffffffffffffffffffffffffffffff16908173ffffffffffffffffffffffffffffffffffffffff168152505060008082815260200190815260200160002060020160009054906101000a900473ffffffffffffffffffffffffffffffffffffffff1685838151811061093557610934611fb9565b5b602002602001019073ffffffffffffffffffffffffffffffffffffffff16908173ffffffffffffffffffffffffffffffffffffffff16815250506000808281526020019081526020016000206003015484838151811061099857610997611fb9565b5b60200260200101818152505081806109af90611f42565b9250505b80806109be90611f42565b91505061071f565b5050509091929394565b813373ffffffffffffffffffffffffffffffffffffffff1660008083815260200190815260200160002060010160009054906101000a900473ffffffffffffffffffffffffffffffffffffffff1673ffffffffffffffffffffffffffffffffffffffff1614610a74576040517f08c379a0000000000000000000000000000000000000000000000000000000008152600401610a6b90611e87565b60405180910390fd5b600073ffffffffffffffffffffffffffffffffffffffff168273ffffffffffffffffffffffffffffffffffffffff1603610ae3576040517f08c379a0000000000000000000000000000000000000000000000000000000008152600401610ada90612094565b60405180910390fd5b60008084815260200190815260200160002060040160008373ffffffffffffffffffffffffffffffffffffffff1673ffffffffffffffffffffffffffffffffffffffff16815260200190815260200160002060009054906101000a900460ff16610c6d57600160008085815260200190815260200160002060040160008473ffffffffffffffffffffffffffffffffffffffff1673ffffffffffffffffffffffffffffffffffffffff16815260200190815260200160002060006101000a81548160ff021916908315150217905550600080848152602001908152602001600020600501829080600181540180825580915050600190039060005260206000200160009091909190916101000a81548173ffffffffffffffffffffffffffffffffffffffff021916908373ffffffffffffffffffffffffffffffffffffffff1602179055508173ffffffffffffffffffffffffffffffffffffffff16837f3c3a9147a1fc73dd51a32f4d10c43d457e8cb826eb6f35cac6349eb965ba82b460405160405180910390a35b505050565b6000600154905090565b606060008083815260200190815260200160002060040160003373ffffffffffffffffffffffffffffffffffffffff1673ffffffffffffffffffffffffffffffffffffffff16815260200190815260200160002060009054906101000a900460ff16610d1d576040517f08c379a0000000000000000000000000000000000000000000000000000000008152600401610d1490612100565b60405180910390fd5b6000808381526020019081526020016000206000018054610d3d90612017565b80601f0160208091040260200160405190810160405280929190818152602001828054610d6990612017565b8015610db65780601f10610d8b57610100808354040283529160200191610db6565b820191906000526020600020905b815481529060010190602001808311610d9957829003601f168201915b50505050509050919050565b600080600084815260200190815260200160002060040160008373ffffffffffffffffffffffffffffffffffffffff1673ffffffffffffffffffffffffffffffffffffffff16815260200190815260200160002060009054906101000a900460ff16905092915050565b60008060606000606060008087815260200190815260200160002060040160003373ffffffffffffffffffffffffffffffffffffffff1673ffffffffffffffffffffffffffffffffffffffff16815260200190815260200160002060009054906101000a900460ff16610ed4576040517f08c379a0000000000000000000000000000000000000000000000000000000008152600401610ecb90612100565b60405180910390fd5b600080600088815260200190815260200160002090508060010160009054906101000a900473ffffffffffffffffffffffffffffffffffffffff1695508060020160009054906101000a900473ffffffffffffffffffffffffffffffffffffffff169450806000018054610f4790612017565b80601f0160208091040260200160405190810160405280929190818152602001828054610f7390612017565b8015610fc05780601f10610f9557610100808354040283529160200191610fc0565b820191906000526020600020905b815481529060010190602001808311610fa357829003601f168201915b5050505050935080600301549250600080600090505b82600501805490508110156110955782600401600084600501838154811061100157611000611fb9565b5b9060005260206000200160009054906101000a900473ffffffffffffffffffffffffffffffffffffffff1673ffffffffffffffffffffffffffffffffffffffff1673ffffffffffffffffffffffffffffffffffffffff16815260200190815260200160002060009054906101000a900460ff161561108857818061108490611f42565b9250505b8080600101915050610fd6565b508067ffffffffffffffff8111156110b0576110af611f8a565b5b6040519080825280602002602001820160405280156110de5781602001602082028036833780820191505090505b5092506000805b83600501805490508110156111f657600084600501828154811061110c5761110b611fb9565b5b9060005260206000200160009054906101000a900473ffffffffffffffffffffffffffffffffffffffff1690508460040160008273ffffffffffffffffffffffffffffffffffffffff1673ffffffffffffffffffffffffffffffffffffffff16815260200190815260200160002060009054906101000a900460ff16156111e8578086848061119a90611f42565b9550815181106111ad576111ac611fb9565b5b602002602001019073ffffffffffffffffffffffffffffffffffffffff16908173ffffffffffffffffffffffffffffffffffffffff16815250505b5080806001019150506110e5565b5050505091939590929450565b813373ffffffffffffffffffffffffffffffffffffffff1660008083815260200190815260200160002060010160009054906101000a900473ffffffffffffffffffffffffffffffffffffffff1673ffffffffffffffffffffffffffffffffffffffff16146112a7576040517f08c379a000000000000000000000000000000000000000000000000000000000815260040161129e90611e87565b60405180910390fd5b3373ffffffffffffffffffffffffffffffffffffffff168273ffffffffffffffffffffffffffffffffffffffff1603611315576040517f08c379a000000000000000000000000000000000000000000000000000000000815260040161130c9061216c565b60405180910390fd5b60008084815260200190815260200160002060040160008373ffffffffffffffffffffffffffffffffffffffff1673ffffffffffffffffffffffffffffffffffffffff16815260200190815260200160002060009054906101000a900460ff166113b4576040517f08c379a00000000000000000000000000000000000000000000000000000000081526004016113ab906121d8565b60405180910390fd5b600080600085815260200190815260200160002060040160008473ffffffffffffffffffffffffffffffffffffffff1673ffffffffffffffffffffffffffffffffffffffff16815260200190815260200160002060006101000a81548160ff0219169083151502179055508173ffffffffffffffffffffffffffffffffffffffff16837f125883b94692baebecad9f111ed97ffa626523bbbadc6b0ef85ee1b56b9e52d560405160405180910390a3505050565b600082829050116114ae576040517f08c379a00000000000000000000000000000000000000000000000000000000081526004016114a590612244565b60405180910390fd5b600160008154809291906114c190611f42565b919050555060008060006001548152602001908152602001600020905082828260000191826114f192919061241b565b50338160010160006101000a81548173ffffffffffffffffffffffffffffffffffffffff021916908373ffffffffffffffffffffffffffffffffffffffff160217905550338160020160006101000a81548173ffffffffffffffffffffffffffffffffffffffff021916908373ffffffffffffffffffffffffffffffffffffffff16021790555042816003018190555060018160040160003373ffffffffffffffffffffffffffffffffffffffff1673ffffffffffffffffffffffffffffffffffffffff16815260200190815260200160002060006101000a81548160ff02191690831515021790555080600501339080600181540180825580915050600190039060005260206000200160009091909190916101000a81548173ffffffffffffffffffffffffffffffffffffffff021916908373ffffffffffffffffffffffffffffffffffffffff1602179055503373ffffffffffffffffffffffffffffffffffffffff166001547f9394bb113a2aae0d79c8c3d65d69839650a4662ec68b4c095d21c950686fbb7f85854260405161168d93929190612527565b60405180910390a3505050565b606060008083815260200190815260200160002060040160003373ffffffffffffffffffffffffffffffffffffffff1673ffffffffffffffffffffffffffffffffffffffff16815260200190815260200160002060009054906101000a900460ff1661173b576040517f08c379a000000000000000000000000000000000000000000000000000000000815260040161173290612100565b60405180910390fd5b6000808381526020019081526020016000206005018054806020026020016040519081016040528092919081815260200182805480156117d057602002820191906000526020600020905b8160009054906101000a900473ffffffffffffffffffffffffffffffffffffffff1673ffffffffffffffffffffffffffffffffffffffff1681526020019060010190808311611786575b50505050509050919050565b600080fd5b600080fd5b6000819050919050565b6117f9816117e6565b811461180457600080fd5b50565b600081359050611816816117f0565b92915050565b600073ffffffffffffffffffffffffffffffffffffffff82169050919050565b60006118478261181c565b9050919050565b6118578161183c565b811461186257600080fd5b50565b6000813590506118748161184e565b92915050565b60008060408385031215611891576118906117dc565b5b600061189f85828601611807565b92505060206118b085828601611865565b9150509250929050565b600081519050919050565b600082825260208201905092915050565b6000819050602082019050919050565b6118ef816117e6565b82525050565b600061190183836118e6565b60208301905092915050565b6000602082019050919050565b6000611925826118ba565b61192f81856118c5565b935061193a836118d6565b8060005b8381101561196b57815161195288826118f5565b975061195d8361190d565b92505060018101905061193e565b5085935050505092915050565b600081519050919050565b600082825260208201905092915050565b6000819050602082019050919050565b600081519050919050565b600082825260208201905092915050565b60005b838110156119de5780820151818401526020810190506119c3565b60008484015250505050565b6000601f19601f8301169050919050565b6000611a06826119a4565b611a1081856119af565b9350611a208185602086016119c0565b611a29816119ea565b840191505092915050565b6000611a4083836119fb565b905092915050565b6000602082019050919050565b6000611a6082611978565b611a6a8185611983565b935083602082028501611a7c85611994565b8060005b85811015611ab85784840389528151611a998582611a34565b9450611aa483611a48565b925060208a01995050600181019050611a80565b50829750879550505050505092915050565b600081519050919050565b600082825260208201905092915050565b6000819050602082019050919050565b611aff8161183c565b82525050565b6000611b118383611af6565b60208301905092915050565b6000602082019050919050565b6000611b3582611aca565b611b3f8185611ad5565b9350611b4a83611ae6565b8060005b83811015611b7b578151611b628882611b05565b9750611b6d83611b1d565b925050600181019050611b4e565b5085935050505092915050565b600060a0820190508181036000830152611ba2818861191a565b90508181036020830152611bb68187611a55565b90508181036040830152611bca8186611b2a565b90508181036060830152611bde8185611b2a565b90508181036080830152611bf2818461191a565b90509695505050505050565b611c07816117e6565b82525050565b6000602082019050611c226000830184611bfe565b92915050565b600060208284031215611c3e57611c3d6117dc565b5b6000611c4c84828501611807565b91505092915050565b600082825260208201905092915050565b6000611c71826119a4565b611c7b8185611c55565b9350611c8b8185602086016119c0565b611c94816119ea565b840191505092915050565b60006020820190508181036000830152611cb98184611c66565b905092915050565b60008115159050919050565b611cd681611cc1565b82525050565b6000602082019050611cf16000830184611ccd565b92915050565b611d008161183c565b82525050565b600060a082019050611d1b6000830188611cf7565b611d286020830187611cf7565b8181036040830152611d3a8186611c66565b9050611d496060830185611bfe565b8181036080830152611d5b8184611b2a565b90509695505050505050565b600080fd5b600080fd5b600080fd5b60008083601f840112611d8c57611d8b611d67565b5b8235905067ffffffffffffffff811115611da957611da8611d6c565b5b602083019150836001820283011115611dc557611dc4611d71565b5b9250929050565b60008060208385031215611de357611de26117dc565b5b600083013567ffffffffffffffff811115611e0157611e006117e1565b5b611e0d85828601611d76565b92509250509250929050565b60006020820190508181036000830152611e338184611b2a565b905092915050565b7f4e6f7420746865206f776e657200000000000000000000000000000000000000600082015250565b6000611e71600d83611c55565b9150611e7c82611e3b565b602082019050919050565b60006020820190508181036000830152611ea081611e64565b9050919050565b7f496e76616c6964206e6577206f776e6572000000000000000000000000000000600082015250565b6000611edd601183611c55565b9150611ee882611ea7565b602082019050919050565b60006020820190508181036000830152611f0c81611ed0565b9050919050565b7f4e487b7100000000000000000000000000000000000000000000000000000000600052601160045260246000fd5b6000611f4d826117e6565b91507fffffffffffffffffffffffffffffffffffffffffffffffffffffffffffffffff8203611f7f57611f7e611f13565b5b600182019050919050565b7f4e487b7100000000000000000000000000000000000000000000000000000000600052604160045260246000fd5b7f4e487b7100000000000000000000000000000000000000000000000000000000600052603260045260246000fd5b7f4e487b7100000000000000000000000000000000000000000000000000000000600052602260045260246000fd5b6000600282049050600182168061202f57607f821691505b60208210810361204257612041611fe8565b5b50919050565b7f496e76616c696420616464726573730000000000000000000000000000000000600082015250565b600061207e600f83611c55565b915061208982612048565b602082019050919050565b600060208201905081810360008301526120ad81612071565b9050919050565b7f4163636573732064656e69656400000000000000000000000000000000000000600082015250565b60006120ea600d83611c55565b91506120f5826120b4565b602082019050919050565b60006020820190508181036000830152612119816120dd565b9050919050565b7f4f776e65722063616e6e6f74207265766f6b652073656c660000000000000000600082015250565b6000612156601883611c55565b915061216182612120565b602082019050919050565b6000602082019050818103600083015261218581612149565b9050919050565b7f5573657220646f65736e27742068617665206163636573730000000000000000600082015250565b60006121c2601883611c55565b91506121cd8261218c565b602082019050919050565b600060208201905081810360008301526121f1816121b5565b9050919050565b7f4349442063616e6e6f7420626520656d70747900000000000000000000000000600082015250565b600061222e601383611c55565b9150612239826121f8565b602082019050919050565b6000602082019050818103600083015261225d81612221565b9050919050565b600082905092915050565b60008190508160005260206000209050919050565b60006020601f8301049050919050565b600082821b905092915050565b6000600883026122d17fffffffffffffffffffffffffffffffffffffffffffffffffffffffffffffffff82612294565b6122db8683612294565b95508019841693508086168417925050509392505050565b6000819050919050565b600061231861231361230e846117e6565b6122f3565b6117e6565b9050919050565b6000819050919050565b612332836122fd565b61234661233e8261231f565b8484546122a1565b825550505050565b600090565b61235b61234e565b612366818484612329565b505050565b5b8181101561238a5761237f600082612353565b60018101905061236c565b5050565b601f8211156123cf576123a08161226f565b6123a984612284565b810160208510156123b8578190505b6123cc6123c485612284565b83018261236b565b50505b505050565b600082821c905092915050565b60006123f2600019846008026123d4565b1980831691505092915050565b600061240b83836123e1565b9150826002028217905092915050565b6124258383612264565b67ffffffffffffffff81111561243e5761243d611f8a565b5b6124488254612017565b61245382828561238e565b6000601f8311600181146124825760008415612470578287013590505b61247a85826123ff565b8655506124e2565b601f1984166124908661226f565b60005b828110156124b857848901358255600182019150602085019450602081019050612493565b868310156124d557848901356124d1601f8916826123e1565b8355505b6001600288020188555050505b50505050505050565b82818337600083830152505050565b60006125068385611c55565b93506125138385846124eb565b61251c836119ea565b840190509392505050565b600060408201905081810360008301526125428185876124fa565b90506125516020830184611bfe565b94935050505056fea26469706673582212203625cb84b41494131dcc83b2d652becc13208e4a6dd97df1ecb809619d8de94564736f6c634300081c0033",
  "linkReferences": {},
  "deployedLinkReferences": {}
}